{
  "contractName": "Numerology",
  "abi": [
    {
      "constant": false,
      "inputs": [
        {
          "name": "P",
          "type": "uint256[3]"
        },
        {
          "name": "Q",
          "type": "uint256[3]"
        }
      ],
      "name": "eq_jacobian",
      "outputs": [
        {
          "name": "",
          "type": "bool"
        }
      ],
      "payable": false,
      "stateMutability": "nonpayable",
      "type": "function"
    }
  ],
  "bytecode": "0x6102fa610030600b82828239805160001a6073146000811461002057610022565bfe5b5030600052607381538281f3007300000000000000000000000000000000000000003014608060405260043610610058576000357c0100000000000000000000000000000000000000000000000000000000900463ffffffff168063ec0a39ad1461005d575b600080fd5b81801561006957600080fd5b506100dc600480360381019080806060019060038060200260405190810160405280929190826003602002808284378201915050505050919291929080606001906003806020026040519081016040528092919082600360200280828437820191505050505091929192905050506100f6565b604051808215151515815260200191505060405180910390f35b6000806000806000807ffffffffffffffffffffffffffffffffffffffffffffffffffffffffefffffc2f9450600088600260038110151561013357fe5b6020020151141561015c57600087600260038110151561014f57fe5b60200201511495506102c3565b600087600260038110151561016d57fe5b6020020151141561018157600095506102c3565b8480151561018b57fe5b87600260038110151561019a57fe5b60200201518860026003811015156101ae57fe5b6020020151099350848015156101c057fe5b8860026003811015156101cf57fe5b60200201518960026003811015156101e357fe5b6020020151099250848015156101f557fe5b8388600060038110151561020557fe5b6020020151098580151561021557fe5b858a600060038110151561022557fe5b60200201510914151561023b57600095506102c3565b8480151561024557fe5b87600260038110151561025457fe5b6020020151850991508480151561026757fe5b88600260038110151561027657fe5b6020020151840990508480151561028957fe5b8188600160038110151561029957fe5b602002015109858015156102a957fe5b838a60016003811015156102b957fe5b6020020151091495505b5050505050929150505600a165627a7a72305820ccd6e0ec5d25df8091c0f4a5c507f9c5f9fac82ee43b849261ce1ec9c44157660029",
  "source": "pragma solidity ^0.4.24;\n\n\n/// @title Numerology: A Solidity library for fast ECC arithmetics using curve secp256k1\n/// @author David Nuñez (david@nucypher.com)\nlibrary Numerology {\n\n    uint256 constant field_order = 0xFFFFFFFFFFFFFFFFFFFFFFFFFFFFFFFFFFFFFFFFFFFFFFFFFFFFFFFEFFFFFC2F;\n\n    /// @notice Equality test of two points in Jacobian coordinates\n    /// @param P An EC point in Jacobian coordinates\n    /// @param Q An EC point in Jacobian coordinates\n    /// @return true if P and Q represent the same point in affine coordinates; false otherwise\n    function eq_jacobian(uint256[3] memory P, uint256[3] memory Q) public returns(bool){\n        uint p = field_order;\n\n        if(P[2] == 0){\n            return Q[2] == 0;   // P and Q are both zero.\n        } else if(Q[2] == 0){\n            return false;       // Q is zero but P isn't.\n        }\n\n        // Now we're sure none of them is zero\n\n        uint256 Q_z_squared = mulmod(Q[2], Q[2], p);\n        uint256 P_z_squared = mulmod(P[2], P[2], p);\n        if (mulmod(P[0], Q_z_squared, p) != mulmod(Q[0], P_z_squared, p)){\n          return false;\n        }\n\n        uint256 Q_z_cubed = mulmod(Q_z_squared, Q[2], p);\n        uint256 P_z_cubed = mulmod(P_z_squared, P[2], p);\n        return mulmod(P[1], Q_z_cubed, p) == mulmod(Q[1], P_z_cubed, p);\n    \n    }\n\n    /// @notice Addition of two points in Jacobian coordinates\n    /// @dev Based on the addition formulas from http://www.hyperelliptic.org/EFD/g1p/auto-code/shortw/jacobian-0/addition/add-2001-b.op3\n    /// @param P An EC point in Jacobian coordinates\n    /// @param Q An EC point in Jacobian coordinates\n    /// @return An EC point in Jacobian coordinates with the sum , represented by an array of 3 uint256\n    function addJac(uint[3] memory P, uint[3] memory Q) internal constant returns (uint[3] memory R) {\n\n        if(P[2] == 0){\n            return Q;\n        } else if(Q[2] == 0){\n            return P;\n        }\n\n        uint256 p = field_order;\n        uint256 zz1 = mulmod(P[2], P[2], p);\n        uint256 zz2 = mulmod(Q[2], Q[2], p);\n        uint256 a   = mulmod(P[0], zz2, p);\n        uint256 c   = mulmod(P[1], mulmod(Q[2], zz2, p), p);   \n        uint256 t0  = mulmod(Q[0], zz1, p);\n        uint256 t1  = mulmod(Q[1], mulmod(P[2], zz1, p), p);\n\n        if ((a == t0) && (c == t1)){\n            return doubleJac(P);\n        }\n        uint256 d   = addmod(t1, p-c, p); // d = t1 - c\n        uint256[3] memory b;\n        b[0] = addmod(t0, p-a, p); // b = t0 - a\n        b[1] = mulmod(b[0], b[0], p); // e = b^2\n        b[2] = mulmod(b[1], b[0], p);  // f = b^3\n        uint256 g = mulmod(a, b[1], p);\n        R[0] = addmod(mulmod(d, d, p), p-addmod(mulmod(2, g, p), b[2], p), p);\n        R[1] = addmod(mulmod(d, addmod(g, p-R[0], p), p), p-mulmod(c, b[2], p), p);\n        R[2] = mulmod(b[0], mulmod(P[2], Q[2], p), p);\n    }\n\n    /// @notice Addition of two points in Jacobian coordinates, placing the result in the first point\n    /// @dev Based on the addition formulas from http://www.hyperelliptic.org/EFD/g1p/auto-code/shortw/jacobian-0/addition/add-2001-b.op3\n    /// @param P An EC point in Jacobian coordinates. The result is returned here.\n    /// @param Q An EC point in Jacobian coordinates\n    function addJacMutates(uint[3] memory P, uint[3] memory Q) internal constant {\n\n        uint256 Pz = P[2];\n        uint256 Qz = Q[2];\n\n        if(Pz == 0){\n            P[0] = Q[0];\n            P[1] = Q[1];\n            P[2] = Qz;\n            return;\n        } else if(Qz == 0){\n            return;\n        }\n\n        uint256 p = field_order;\n\n        uint256 zz = mulmod(Pz, Pz, p);\n        uint256 t0  = mulmod(Q[0], zz, p);\n        uint256 t1  = mulmod(Q[1], mulmod(Pz, zz, p), p);\n\n        zz = mulmod(Qz, Qz, p);\n        uint256 a   = mulmod(P[0], zz, p);\n        uint256 c   = mulmod(P[1], mulmod(Qz, zz, p), p);   \n        \n\n        if ((a == t0) && (c == t1)){\n            doubleMutates(P);\n            return;\n        }\n        \n        t1   = addmod(t1, p-c, p); // d = t1 - c\n        uint256 b = addmod(t0, p-a, p); // b = t0 - a\n        uint256 e = mulmod(b, b, p); // e = b^2\n        t0 = mulmod(a, e, p);    // t0 is actually \"g\"\n        e = mulmod(e, b, p);  // f = b^3  (we will re-use the variable e )\n        uint256 temp = addmod(mulmod(t1, t1, p), p-addmod(mulmod(2, t0, p), e, p), p);\n        P[0] = temp;\n        temp = mulmod(t1, addmod(t0, p-temp, p), p);\n        P[1] = addmod(temp, p-mulmod(c, e, p), p);\n        P[2] = mulmod(b, mulmod(Pz, Qz, p), p);\n    }\n\n    /// @notice Subtraction of two points in Jacobian coordinates, placing the result in the first point\n    /// @dev Based on the addition formulas from http://www.hyperelliptic.org/EFD/g1p/auto-code/shortw/jacobian-0/addition/add-2001-b.op3\n    /// @param P An EC point in Jacobian coordinates. The result is returned here.\n    /// @param Q An EC point in Jacobian coordinates\n    function subJacMutates(uint[3] memory P, uint[3] memory Q) internal constant {\n\n        uint256 Pz = P[2];\n        uint256 Qz = Q[2];\n        uint256 p = field_order;\n\n        if(Pz == 0){\n            P[0] = Q[0];\n            P[1] = p - Q[1];\n            P[2] = Qz;\n            return;\n        } else if(Qz == 0){\n            return;\n        }\n\n        uint256 zz = mulmod(Pz, Pz, p);\n        uint256 t0  = mulmod(Q[0], zz, p);\n        uint256 t1  = mulmod(p - Q[1], mulmod(Pz, zz, p), p);\n\n        zz = mulmod(Qz, Qz, p);\n        uint256 a   = mulmod(P[0], zz, p);\n        uint256 c   = mulmod(P[1], mulmod(Qz, zz, p), p); \n\n        if ((a == t0) && (c == t1)){\n            P[2] = 0;\n            return;\n        }\n        \n        t1   = addmod(t1, p-c, p); // d = t1 - c\n        uint256 b = addmod(t0, p-a, p); // b = t0 - a\n        uint256 e = mulmod(b, b, p); // e = b^2\n        t0 = mulmod(a, e, p);    // t0 is actually \"g\"\n        e = mulmod(e, b, p);  // f = b^3  (we will re-use the variable e )\n        uint256 temp = addmod(mulmod(t1, t1, p), p-addmod(mulmod(2, t0, p), e, p), p);\n        P[0] = temp;\n        temp = mulmod(t1, addmod(t0, p-temp, p), p);\n        P[1] = addmod(temp, p-mulmod(c, e, p), p);\n        P[2] = mulmod(b, mulmod(Pz, Qz, p), p);\n    }\n\n    /// @notice Point doubling in Jacobian coordinates\n    /// @param P An EC point in Jacobian coordinates. \n    /// @return An EC point in Jacobian coordinates   \n    function doubleJac(uint[3] memory P) internal constant returns (uint[3] memory Q) {\n        uint256 z = P[2];\n        if (z == 0)\n            return;\n        uint256 p = field_order;\n        uint256 x = P[0];\n        uint256 _2y = mulmod(2, P[1], p);\n        uint256 _4yy = mulmod(_2y, _2y, p);\n        uint256 s = mulmod(_4yy, x, p);\n        uint256 m = mulmod(3, mulmod(x, x, p), p);\n        uint256 t = addmod(mulmod(m, m, p), mulmod(0xfffffffffffffffffffffffffffffffffffffffffffffffffffffffefffffc2d, s, p),p);\n        Q[0] = t;\n        Q[1] = addmod(mulmod(m, addmod(s, p - t, p), p), mulmod(0x7fffffffffffffffffffffffffffffffffffffffffffffffffffffff7ffffe17, mulmod(_4yy, _4yy, p), p), p);\n        Q[2] = mulmod(_2y, z, p);\n    }\n\n    /// @notice Point doubling in Jacobian coordinates, placing the result in the first point\n    /// @param P An EC point in Jacobian coordinates. The result is also stored here.\n    function doubleMutates(uint[3] memory P) internal constant {\n        uint256 z = P[2];\n        if (z == 0)\n            return;\n        uint256 p = field_order;\n        uint256 x = P[0];\n        uint256 _2y = mulmod(2, P[1], p);\n        uint256 _4yy = mulmod(_2y, _2y, p);\n        uint256 s = mulmod(_4yy, x, p);\n        uint256 m = mulmod(3, mulmod(x, x, p), p);\n        uint256 t = addmod(mulmod(m, m, p), mulmod(0xfffffffffffffffffffffffffffffffffffffffffffffffffffffffefffffc2d, s, p),p);\n        P[0] = t;\n        P[1] = addmod(mulmod(m, addmod(s, p - t, p), p), mulmod(0x7fffffffffffffffffffffffffffffffffffffffffffffffffffffff7ffffe17, mulmod(_4yy, _4yy, p), p), p);\n        P[2] = mulmod(_2y, z, p);\n    }\n    \n    function _lookup_sim_mul(uint256[3][4][4] memory iP, uint256[4] memory P_Q) internal constant {\n        uint256 p = field_order;\n        uint256 beta = 0x7ae96a2b657c07106e64479eac3434e99cf0497512f58995c1396c28719501ee;\n\n        uint256[3][4] memory iPj;\n        uint256[3] memory double;\n\n        // P1 Lookup Table\n        iPj = iP[0];\n        iPj[0] = [P_Q[0], P_Q[1], 1];  \t\t\t\t\t// P1\n        \n        double = doubleJac(iPj[0]);\n        iPj[1] = addJac(double, iPj[0]);\n        iPj[2] = addJac(double, iPj[1]);\n        iPj[3] = addJac(double, iPj[2]);\n\n        // P2 Lookup Table\n        iP[1][0] = [mulmod(beta, P_Q[0], p), P_Q[1], 1];\t// P2\n\n        iP[1][1] = [mulmod(beta, iPj[1][0], p), iPj[1][1], iPj[1][2]];\n        iP[1][2] = [mulmod(beta, iPj[2][0], p), iPj[2][1], iPj[2][2]];\n        iP[1][3] = [mulmod(beta, iPj[3][0], p), iPj[3][1], iPj[3][2]];\n\n        // Q1 Lookup Table\n        iPj = iP[2];\n        iPj[0] = [P_Q[2], P_Q[3], 1];                   // Q1\n\n        double = doubleJac(iPj[0]);\n        iPj[1] = addJac(double, iPj[0]);\n        iPj[2] = addJac(double, iPj[1]);\n        iPj[3] = addJac(double, iPj[2]);\n\n        // Q2 Lookup Table\n        iP[3][0] = [mulmod(beta, P_Q[2], p), P_Q[3], 1];\t// P2\n\n        iP[3][1] = [mulmod(beta, iPj[1][0], p), iPj[1][1], iPj[1][2]];\n        iP[3][2] = [mulmod(beta, iPj[2][0], p), iPj[2][1], iPj[2][2]];\n        iP[3][3] = [mulmod(beta, iPj[3][0], p), iPj[3][1], iPj[3][2]];\n    }\n\n    /// @notice Computes the WNAF representation of an integer, and puts the resulting array of coefficients in memory\n    /// @param d A 256-bit integer\n    /// @return (ptr, length) The pointer to the first coefficient, and the total length of the array\n    function _wnaf(int256 d) internal constant returns (uint256 ptr, uint256 length){\n    \n        int sign = d < 0 ? -1 : int(1);\n        uint256 k = uint256(sign * d);\n\n        length = 0;\n        assembly\n        {\n            let ki := 0\n            ptr := mload(0x40) // Get free memory pointer\n            mstore(0x40, add(ptr, 300)) // Updates free memory pointer to +512 bytes offset\n            for { } gt(k, 0) { } { // while k > 0\n                if and(k, 1) {  // if k is odd:\n                    ki := mod(k, 16)\n                    k := add(sub(k, ki), mul(gt(ki, 8), 16))\n                    // if sign = 1, store ki; if sign = -1, store 16 - ki\n                    mstore8(add(ptr, length), add(mul(ki, sign), sub(8, mul(sign, 8))))\n                }\n                length := add(length, 1)\n                k := div(k, 2)\n            }\n            //log3(ptr, 1, 0xfabadaacabada, d, length)    \n        }\n\n        return (ptr, length);\n    }\n\n    /// @notice Simultaneous multiplication of the form kP + lQ. \n    /// @dev Scalars k and l can be decomposed such that k = k1 + k2 λ, and l = l1 + l2 λ,\n    /// where λ is specific to some endomorphism of the curve\n    /// @param k_l An array with the decomposition of k and l values, i.e., [k1, k2, l1, l2]\n    /// @param P_Q An array with the affine coordinates of both P and Q, i.e., [P1, P2, Q1, Q2]\n    function _sim_mul(int256[4] memory k_l, uint256[4] memory P_Q) internal constant returns (uint[3] memory Q) {\n        uint256[4] memory wnaf;\n        uint256 max_count = 0;\n        uint256 count = 0;        \n\n        for(uint j=0; j<4; j++){\n            (wnaf[j], count) = _wnaf(k_l[j]);\n            if(count > max_count){\n                max_count = count;\n            }\n        }\n\n        Q = _sim_mul_wnaf(wnaf, max_count, P_Q);\n    }\n\n    \n    function _sim_mul_wnaf(uint256[4] memory wnaf_ptr, uint256 length, uint256[4] memory P_Q) internal constant returns (uint[3] memory Q) {\n        uint256[3][4][4] memory iP;\n        _lookup_sim_mul(iP, P_Q);\n\n        // LOOP \n        uint256 i = length;\n        uint256 ki;\n        uint256 ptr;\n        while(i > 0) {\n            i--;\n\n            doubleMutates(Q);\n\n            ptr = wnaf_ptr[0] + i;\n            assembly {\n                ki := byte(0, mload(ptr))\n            }\n\n            if (ki > 8) {\n                subJacMutates(Q, iP[0][(15 - ki) / 2]);\n            } else if (ki > 0) {\n                addJacMutates(Q, iP[0][(ki - 1) / 2]);\n            }\n\n            ptr = wnaf_ptr[1] + i;\n            assembly {\n                ki := byte(0, mload(ptr))\n            }\n\n            if (ki > 8) {\n                subJacMutates(Q, iP[1][(15 - ki) / 2]);\n            } else if (ki > 0) {\n                addJacMutates(Q, iP[1][(ki - 1) / 2]);\n            } \n\n            ptr = wnaf_ptr[2] + i;\n            assembly {\n                ki := byte(0, mload(ptr))\n            }\n\n            if (ki > 8) {\n                subJacMutates(Q, iP[2][(15 - ki) / 2]);\n            } else if (ki > 0) {\n                addJacMutates(Q, iP[2][(ki - 1) / 2]);\n            } \n\n            ptr = wnaf_ptr[3] + i;\n            assembly {\n                ki := byte(0, mload(ptr))\n            }\n\n            if (ki > 8) {\n                subJacMutates(Q, iP[3][(15 - ki) / 2]);\n            } else if (ki > 0) {\n                addJacMutates(Q, iP[3][(ki - 1) / 2]);\n            } \n            \n        }\n    }\n\n}",
  "sourcePath": "/Users/david/NuCypher/dev/numerology/contracts/Numerology.sol",
  "compiler": {
    "name": "solc",
    "version": "0.4.24+commit.e67f0147.Emscripten.clang"
  },
  "schemaVersion": "2.0.1",
  "updatedAt": "2018-09-04T23:10:03.199Z"
}