{
  "contractName": "Numerology",
  "abi": [
    {
      "constant": true,
      "inputs": [
        {
          "name": "P",
          "type": "uint256[3]"
        },
        {
          "name": "Q",
          "type": "uint256[3]"
        }
      ],
      "name": "eq_jacobian",
      "outputs": [
        {
          "name": "",
          "type": "bool"
        }
      ],
      "payable": false,
      "stateMutability": "pure",
      "type": "function"
    },
    {
      "constant": true,
      "inputs": [
        {
          "name": "P",
          "type": "uint256[2]"
        },
        {
          "name": "Q",
          "type": "uint256[3]"
        }
      ],
      "name": "eq_affine_jacobian",
      "outputs": [
        {
          "name": "",
          "type": "bool"
        }
      ],
      "payable": false,
      "stateMutability": "pure",
      "type": "function"
    },
    {
      "constant": true,
      "inputs": [
        {
          "name": "Px",
          "type": "uint256"
        },
        {
          "name": "Py",
          "type": "uint256"
        }
      ],
      "name": "is_on_curve",
      "outputs": [
        {
          "name": "",
          "type": "bool"
        }
      ],
      "payable": false,
      "stateMutability": "view",
      "type": "function"
    },
    {
      "constant": true,
      "inputs": [
        {
          "name": "x1",
          "type": "uint256"
        },
        {
          "name": "y1",
          "type": "uint256"
        },
        {
          "name": "scalar",
          "type": "uint256"
        },
        {
          "name": "qx",
          "type": "uint256"
        },
        {
          "name": "qy",
          "type": "uint256"
        }
      ],
      "name": "ecmulVerify",
      "outputs": [
        {
          "name": "",
          "type": "bool"
        }
      ],
      "payable": false,
      "stateMutability": "view",
      "type": "function"
    }
  ],
  "bytecode": "0x6106e8610030600b82828239805160001a6073146000811461002057610022565bfe5b5030600052607381538281f3007300000000000000000000000000000000000000003014608060405260043610610079576000357c0100000000000000000000000000000000000000000000000000000000900463ffffffff168063022079d91461007e5780630bdf3477146100de57806365c6c84e14610120578063ec0a39ad146101ac575b600080fd5b6100c46004803603810190808035906020019092919080359060200190929190803590602001909291908035906020019092919080359060200190929190505050610238565b604051808215151515815260200191505060405180910390f35b61010660048036038101908080359060200190929190803590602001909291905050506103e8565b604051808215151515815260200191505060405180910390f35b61019260048036038101908080604001906002806020026040519081016040528092919082600260200280828437820191505050505091929192908060600190600380602002604051908101604052809291908260036020028082843782019150505050509192919290505050610474565b604051808215151515815260200191505060405180910390f35b61021e6004803603810190808060600190600380602002604051908101604052809291908260036020028082843782019150505050509192919290806060019060038060200260405190810160405280929190826003602002808284378201915050505050919291929050505061055e565b604051808215151515815260200191505060405180910390f35b6000806000807ffffffffffffffffffffffffffffffffebaaedce6af48a03bbfd25e8cd036414192506001600060028a81151561027157fe5b06601b018b6001028680151561028357fe5b8d8c096001026040516000815260200160405260405180856001026000191681526020018460ff1660ff1681526020018360001916600019168152602001826000191660001916815260200194505050505060206040516020810390808403906000865af11580156102f9573d6000803e3d6000fd5b50505060206040510351915073ffffffffffffffffffffffffffffffffffffffff868660405160200180838152602001828152602001925050506040516020818303038152906040526040518082805190602001908083835b6020831015156103775780518252602082019150602081019050602083039250610352565b6001836020036101000a0380198251168184511680821785525050505050509050019150506040518091039020600190041690508173ffffffffffffffffffffffffffffffffffffffff168173ffffffffffffffffffffffffffffffffffffffff1614935050505095945050505050565b6000806000807ffffffffffffffffffffffffffffffffffffffffffffffffffffffffefffffc2f925082861015806104205750828510155b1561042e576000935061046b565b8280151561043857fe5b85860991508280151561044757fe5b60078480151561045357fe5b888680151561045e57fe5b8a8b090908905080821493505b50505092915050565b6000806000807ffffffffffffffffffffffffffffffffffffffffffffffffffffffffefffffc2f92508460026003811015156104ac57fe5b6020020151915060008214156104c55760009350610555565b828015156104cf57fe5b82830990508460006003811015156104e357fe5b6020020151838015156104f257fe5b8288600060028110151561050257fe5b602002015109148015610552575084600160038110151561051f57fe5b60200201518380151561052e57fe5b8480151561053857fe5b84840988600160028110151561054a57fe5b602002015109145b93505b50505092915050565b6000806000806000806000807ffffffffffffffffffffffffffffffffffffffffffffffffffffffffefffffc2f965088600260038110151561059c57fe5b602002015195508960026003811015156105b257fe5b6020020151945060008514156105cd576000861497506106af565b60008614156105df57600097506106af565b868015156105e957fe5b8687099350868015156105f857fe5b85860992508680151561060757fe5b838a600060038110151561061757fe5b6020020151098780151561062757fe5b858c600060038110151561063757fe5b60200201510914151561064d57600097506106af565b8680151561065757fe5b86850991508680151561066657fe5b85840990508680151561067557fe5b818a600160038110151561068557fe5b6020020151098780151561069557fe5b838c60016003811015156106a557fe5b6020020151091497505b50505050505050929150505600a165627a7a72305820cd96327a9087ab86b81a714d40885cdb63472be248f531a1acae64f44b4eb7ad0029",
  "source": "pragma solidity ^0.4.24;\n\n\n/// @title Numerology: A Solidity library for fast ECC arithmetics using curve secp256k1\n/// @author David Nuñez (david@nucypher.com)\nlibrary Numerology {\n\n    uint256 constant field_order = 0xFFFFFFFFFFFFFFFFFFFFFFFFFFFFFFFFFFFFFFFFFFFFFFFFFFFFFFFEFFFFFC2F;\n\n    /// @notice Equality test of two points in Jacobian coordinates\n    /// @param P An EC point in Jacobian coordinates\n    /// @param Q An EC point in Jacobian coordinates\n    /// @return true if P and Q represent the same point in affine coordinates; false otherwise\n    function eq_jacobian(uint256[3] memory P, uint256[3] memory Q) pure public returns(bool){\n        uint256 p = field_order;\n\n        uint256 Qz = Q[2];\n        uint256 Pz = P[2];\n        if(Pz == 0){\n            return Qz == 0;   // P and Q are both zero.\n        } else if(Qz == 0){\n            return false;       // Q is zero but P isn't.\n        }\n\n        // Now we're sure none of them is zero\n\n        uint256 Q_z_squared = mulmod(Qz, Qz, p);\n        uint256 P_z_squared = mulmod(Pz, Pz, p);\n        if (mulmod(P[0], Q_z_squared, p) != mulmod(Q[0], P_z_squared, p)){\n          return false;\n        }\n\n        uint256 Q_z_cubed = mulmod(Q_z_squared, Qz, p);\n        uint256 P_z_cubed = mulmod(P_z_squared, Pz, p);\n        return mulmod(P[1], Q_z_cubed, p) == mulmod(Q[1], P_z_cubed, p);\n    \n    }\n\n    /// @notice Equality test of two points, in affine and Jacobian coordinates respectively\n    /// @param P An EC point in affine coordinates\n    /// @param Q An EC point in Jacobian coordinates\n    /// @return true if P and Q represent the same point in affine coordinates; false otherwise\n    function eq_affine_jacobian(uint256[2] memory P, uint256[3] memory Q) pure public returns(bool){\n        uint256 p = field_order;\n\n        uint256 Qz = Q[2];\n        if(Qz == 0){\n            return false;       // Q is zero but P isn't.\n        }\n\n        uint256 Q_z_squared = mulmod(Qz, Qz, p);\n        return mulmod(P[0], Q_z_squared, p) == Q[0] && mulmod(P[1], mulmod(Q_z_squared, Qz, p), p) == Q[1];\n    \n    }\n\n  \n    /// @notice Addition of two points in Jacobian coordinates\n    /// @dev Based on the addition formulas from http://www.hyperelliptic.org/EFD/g1p/auto-code/shortw/jacobian-0/addition/add-2001-b.op3\n    /// @param P An EC point in Jacobian coordinates\n    /// @param Q An EC point in Jacobian coordinates\n    /// @return An EC point in Jacobian coordinates with the sum, represented by an array of 3 uint256\n    function addJac(uint[3] memory P, uint[3] memory Q) internal constant returns (uint[3] memory R) {\n\n        if(P[2] == 0){\n            return Q;\n        } else if(Q[2] == 0){\n            return P;\n        }\n\n        uint256 p = field_order;\n        uint256 zz1 = mulmod(P[2], P[2], p);\n        uint256 zz2 = mulmod(Q[2], Q[2], p);\n        uint256 a   = mulmod(P[0], zz2, p);\n        uint256 c   = mulmod(P[1], mulmod(Q[2], zz2, p), p);   \n        uint256 t0  = mulmod(Q[0], zz1, p);\n        uint256 t1  = mulmod(Q[1], mulmod(P[2], zz1, p), p);\n\n        if ((a == t0) && (c == t1)){\n            return doubleJac(P);\n        }\n        uint256 d   = addmod(t1, p-c, p); // d = t1 - c\n        uint256[3] memory b;\n        b[0] = addmod(t0, p-a, p); // b = t0 - a\n        b[1] = mulmod(b[0], b[0], p); // e = b^2\n        b[2] = mulmod(b[1], b[0], p);  // f = b^3\n        uint256 g = mulmod(a, b[1], p);\n        R[0] = addmod(mulmod(d, d, p), p-addmod(mulmod(2, g, p), b[2], p), p);\n        R[1] = addmod(mulmod(d, addmod(g, p-R[0], p), p), p-mulmod(c, b[2], p), p);\n        R[2] = mulmod(b[0], mulmod(P[2], Q[2], p), p);\n    }\n\n    /// @notice Addition of two points in Jacobian coordinates, placing the result in the first point\n    /// @dev Based on the addition formulas from http://www.hyperelliptic.org/EFD/g1p/auto-code/shortw/jacobian-0/addition/add-2001-b.op3\n    /// @param P An EC point in Jacobian coordinates. The result is returned here.\n    /// @param Q An EC point in Jacobian coordinates\n    function addJacMutates(uint[3] memory P, uint[3] memory Q) internal constant {\n\n        uint256 Pz = P[2];\n        uint256 Qz = Q[2];\n\n        if(Pz == 0){\n            P[0] = Q[0];\n            P[1] = Q[1];\n            P[2] = Qz;\n            return;\n        } else if(Qz == 0){\n            return;\n        }\n\n        uint256 p = field_order;\n\n        uint256 zz = mulmod(Pz, Pz, p);\n        uint256 t0  = mulmod(Q[0], zz, p);\n        uint256 t1  = mulmod(Q[1], mulmod(Pz, zz, p), p);\n\n        zz = mulmod(Qz, Qz, p);\n        uint256 a   = mulmod(P[0], zz, p);\n        uint256 c   = mulmod(P[1], mulmod(Qz, zz, p), p);   \n        \n\n        if ((a == t0) && (c == t1)){\n            doubleMutates(P);\n            return;\n        }\n        \n        t1   = addmod(t1, p-c, p); // d = t1 - c\n        uint256 b = addmod(t0, p-a, p); // b = t0 - a\n        uint256 e = mulmod(b, b, p); // e = b^2\n        t0 = mulmod(a, e, p);    // t0 is actually \"g\"\n        e = mulmod(e, b, p);  // f = b^3  (we will re-use the variable e )\n        uint256 temp = addmod(mulmod(t1, t1, p), p-addmod(mulmod(2, t0, p), e, p), p);\n        P[0] = temp;\n        temp = mulmod(t1, addmod(t0, p-temp, p), p);\n        P[1] = addmod(temp, p-mulmod(c, e, p), p);\n        P[2] = mulmod(b, mulmod(Pz, Qz, p), p);\n    }\n\n    /// @notice Subtraction of two points in Jacobian coordinates, placing the result in the first point\n    /// @dev Based on the addition formulas from http://www.hyperelliptic.org/EFD/g1p/auto-code/shortw/jacobian-0/addition/add-2001-b.op3\n    /// @param P An EC point in Jacobian coordinates. The result is returned here.\n    /// @param Q An EC point in Jacobian coordinates\n    function subJacMutates(uint[3] memory P, uint[3] memory Q) internal constant {\n\n        uint256 Pz = P[2];\n        uint256 Qz = Q[2];\n        uint256 p = field_order;\n\n        if(Pz == 0){\n            P[0] = Q[0];\n            P[1] = p - Q[1];\n            P[2] = Qz;\n            return;\n        } else if(Qz == 0){\n            return;\n        }\n\n        uint256 zz = mulmod(Pz, Pz, p);\n        uint256 t0  = mulmod(Q[0], zz, p);\n        uint256 t1  = mulmod(p - Q[1], mulmod(Pz, zz, p), p);\n\n        zz = mulmod(Qz, Qz, p);\n        uint256 a   = mulmod(P[0], zz, p);\n        uint256 c   = mulmod(P[1], mulmod(Qz, zz, p), p); \n\n        if ((a == t0) && (c == t1)){\n            P[2] = 0;\n            return;\n        }\n        \n        t1   = addmod(t1, p-c, p); // d = t1 - c\n        uint256 b = addmod(t0, p-a, p); // b = t0 - a\n        uint256 e = mulmod(b, b, p); // e = b^2\n        t0 = mulmod(a, e, p);    // t0 is actually \"g\"\n        e = mulmod(e, b, p);  // f = b^3  (we will re-use the variable e )\n        uint256 temp = addmod(mulmod(t1, t1, p), p-addmod(mulmod(2, t0, p), e, p), p);\n        P[0] = temp;\n        temp = mulmod(t1, addmod(t0, p-temp, p), p);\n        P[1] = addmod(temp, p-mulmod(c, e, p), p);\n        P[2] = mulmod(b, mulmod(Pz, Qz, p), p);\n    }\n\n    /// @notice Adds two points in affine coordinates, with the result in Jacobian\n    /// @dev Based on the addition formulas from http://www.hyperelliptic.org/EFD/g1p/auto-code/shortw/jacobian-0/addition/add-2001-b.op3\n    /// @param P An EC point in affine coordinates\n    /// @param Q An EC point in affine coordinates\n    /// @return An EC point in Jacobian coordinates with the sum, represented by an array of 3 uint256\n    function add_affine_to_jac(uint[2] memory P, uint[2] memory Q) internal constant returns (uint[3] memory R) {\n\n        uint256 p = field_order;\n        uint256 a   = P[0];\n        uint256 c   = P[1];\n        uint256 t0  = Q[0];\n        uint256 t1  = Q[1];\n\n        if ((a == t0) && (c == t1)){\n            return doubleJac([a, c, 1]);\n        }\n        uint256 d = addmod(t1, p-c, p); // d = t1 - c\n        \n        uint256 b = addmod(t0, p-a, p); // b = t0 - a\n        uint256 e = mulmod(b, b, p); // e = b^2\n        uint256 f = mulmod(e, b, p);  // f = b^3\n        uint256 g = mulmod(a, e, p);\n        R[0] = addmod(mulmod(d, d, p), p-addmod(mulmod(2, g, p), f, p), p);\n        R[1] = addmod(mulmod(d, addmod(g, p-R[0], p), p), p-mulmod(c, f, p), p);\n        R[2] = b;\n    }\n\n\n    /// @notice Point doubling in Jacobian coordinates\n    /// @param P An EC point in Jacobian coordinates. \n    /// @return An EC point in Jacobian coordinates   \n    function doubleJac(uint[3] memory P) internal constant returns (uint[3] memory Q) {\n        uint256 z = P[2];\n        if (z == 0)\n            return;\n        uint256 p = field_order;\n        uint256 x = P[0];\n        uint256 _2y = mulmod(2, P[1], p);\n        uint256 _4yy = mulmod(_2y, _2y, p);\n        uint256 s = mulmod(_4yy, x, p);\n        uint256 m = mulmod(3, mulmod(x, x, p), p);\n        uint256 t = addmod(mulmod(m, m, p), mulmod(0xfffffffffffffffffffffffffffffffffffffffffffffffffffffffefffffc2d, s, p),p);\n        Q[0] = t;\n        Q[1] = addmod(mulmod(m, addmod(s, p - t, p), p), mulmod(0x7fffffffffffffffffffffffffffffffffffffffffffffffffffffff7ffffe17, mulmod(_4yy, _4yy, p), p), p);\n        Q[2] = mulmod(_2y, z, p);\n    }\n\n    /// @notice Point doubling in Jacobian coordinates, placing the result in the first point\n    /// @param P An EC point in Jacobian coordinates. The result is also stored here.\n    function doubleMutates(uint[3] memory P) internal constant {\n        uint256 z = P[2];\n        if (z == 0)\n            return;\n        uint256 p = field_order;\n        uint256 x = P[0];\n        uint256 _2y = mulmod(2, P[1], p);\n        uint256 _4yy = mulmod(_2y, _2y, p);\n        uint256 s = mulmod(_4yy, x, p);\n        uint256 m = mulmod(3, mulmod(x, x, p), p);\n        uint256 t = addmod(mulmod(m, m, p), mulmod(0xfffffffffffffffffffffffffffffffffffffffffffffffffffffffefffffc2d, s, p),p);\n        P[0] = t;\n        P[1] = addmod(mulmod(m, addmod(s, p - t, p), p), mulmod(0x7fffffffffffffffffffffffffffffffffffffffffffffffffffffff7ffffe17, mulmod(_4yy, _4yy, p), p), p);\n        P[2] = mulmod(_2y, z, p);\n    }\n    \n    function _lookup_sim_mul(uint256[3][4][4] memory iP, uint256[4] memory P_Q) internal constant {\n        uint256 p = field_order;\n        uint256 beta = 0x7ae96a2b657c07106e64479eac3434e99cf0497512f58995c1396c28719501ee;\n\n        uint256[3][4] memory iPj;\n        uint256[3] memory double;\n\n        // P1 Lookup Table\n        iPj = iP[0];\n        iPj[0] = [P_Q[0], P_Q[1], 1];  \t\t\t\t\t\t// P1\n        \n        double = doubleJac(iPj[0]);\n        iPj[1] = addJac(double, iPj[0]);\n        iPj[2] = addJac(double, iPj[1]);\n        iPj[3] = addJac(double, iPj[2]);\n\n        // P2 Lookup Table\n        iP[1][0] = [mulmod(beta, P_Q[0], p), P_Q[1], 1];\t// P2\n\n        iP[1][1] = [mulmod(beta, iPj[1][0], p), iPj[1][1], iPj[1][2]];\n        iP[1][2] = [mulmod(beta, iPj[2][0], p), iPj[2][1], iPj[2][2]];\n        iP[1][3] = [mulmod(beta, iPj[3][0], p), iPj[3][1], iPj[3][2]];\n\n        // Q1 Lookup Table\n        iPj = iP[2];\n        iPj[0] = [P_Q[2], P_Q[3], 1];                   \t// Q1\n\n        double = doubleJac(iPj[0]);\n        iPj[1] = addJac(double, iPj[0]);\n        iPj[2] = addJac(double, iPj[1]);\n        iPj[3] = addJac(double, iPj[2]);\n\n        // Q2 Lookup Table\n        iP[3][0] = [mulmod(beta, P_Q[2], p), P_Q[3], 1];\t// P2\n\n        iP[3][1] = [mulmod(beta, iPj[1][0], p), iPj[1][1], iPj[1][2]];\n        iP[3][2] = [mulmod(beta, iPj[2][0], p), iPj[2][1], iPj[2][2]];\n        iP[3][3] = [mulmod(beta, iPj[3][0], p), iPj[3][1], iPj[3][2]];\n    }\n\n    /// @notice Computes the WNAF representation of an integer, and puts the resulting array of coefficients in memory\n    /// @param d A 256-bit integer\n    /// @return (ptr, length) The pointer to the first coefficient, and the total length of the array\n    function _wnaf(int256 d) internal constant returns (uint256 ptr, uint256 length){\n    \n        int sign = d < 0 ? -1 : int(1);\n        uint256 k = uint256(sign * d);\n\n        length = 0;\n        assembly\n        {\n            let ki := 0\n            ptr := mload(0x40) // Get free memory pointer\n            mstore(0x40, add(ptr, 300)) // Updates free memory pointer to +300 bytes offset\n            for { } gt(k, 0) { } { // while k > 0\n                if and(k, 1) {  // if k is odd:\n                    ki := mod(k, 16)\n                    k := add(sub(k, ki), mul(gt(ki, 8), 16))\n                    // if sign = 1, store ki; if sign = -1, store 16 - ki\n                    mstore8(add(ptr, length), add(mul(ki, sign), sub(8, mul(sign, 8))))\n                }\n                length := add(length, 1)\n                k := div(k, 2)\n            }\n            //log3(ptr, 1, 0xfabadaacabada, d, length)    \n        }\n\n        return (ptr, length);\n    }\n\n    /// @notice Simultaneous multiplication of the form kP + lQ. \n    /// @dev Scalars k and l are expected to be decomposed such that k = k1 + k2 λ, and l = l1 + l2 λ,\n    /// where λ is specific to the endomorphism of the curve\n    /// @param k_l An array with the decomposition of k and l values, i.e., [k1, k2, l1, l2]\n    /// @param P_Q An array with the affine coordinates of both P and Q, i.e., [P1, P2, Q1, Q2]\n    function _sim_mul(int256[4] memory k_l, uint256[4] memory P_Q) internal constant returns (uint[3] memory Q) {\n\n    \trequire(is_on_curve(P_Q[0], P_Q[1]) && is_on_curve(P_Q[2], P_Q[3]), \"Invalid points\");\n\n        uint256[4] memory wnaf;\n        uint256 max_count = 0;\n        uint256 count = 0;        \n\n        for(uint j=0; j<4; j++){\n            (wnaf[j], count) = _wnaf(k_l[j]);\n            if(count > max_count){\n                max_count = count;\n            }\n        }\n\n        Q = _sim_mul_wnaf(wnaf, max_count, P_Q);\n    }\n\n    \n    function _sim_mul_wnaf(uint256[4] memory wnaf_ptr, uint256 length, uint256[4] memory P_Q) internal constant returns (uint[3] memory Q) {\n        uint256[3][4][4] memory iP;\n        _lookup_sim_mul(iP, P_Q);\n\n        // LOOP \n        uint256 i = length;\n        uint256 ki;\n        uint256 ptr;\n        while(i > 0) {\n            i--;\n\n            doubleMutates(Q);\n\n            ptr = wnaf_ptr[0] + i;\n            assembly {\n                ki := byte(0, mload(ptr))\n            }\n\n            if (ki > 8) {\n                subJacMutates(Q, iP[0][(15 - ki) / 2]);\n            } else if (ki > 0) {\n                addJacMutates(Q, iP[0][(ki - 1) / 2]);\n            }\n\n            ptr = wnaf_ptr[1] + i;\n            assembly {\n                ki := byte(0, mload(ptr))\n            }\n\n            if (ki > 8) {\n                subJacMutates(Q, iP[1][(15 - ki) / 2]);\n            } else if (ki > 0) {\n                addJacMutates(Q, iP[1][(ki - 1) / 2]);\n            } \n\n            ptr = wnaf_ptr[2] + i;\n            assembly {\n                ki := byte(0, mload(ptr))\n            }\n\n            if (ki > 8) {\n                subJacMutates(Q, iP[2][(15 - ki) / 2]);\n            } else if (ki > 0) {\n                addJacMutates(Q, iP[2][(ki - 1) / 2]);\n            } \n\n            ptr = wnaf_ptr[3] + i;\n            assembly {\n                ki := byte(0, mload(ptr))\n            }\n\n            if (ki > 8) {\n                subJacMutates(Q, iP[3][(15 - ki) / 2]);\n            } else if (ki > 0) {\n                addJacMutates(Q, iP[3][(ki - 1) / 2]);\n            } \n            \n        }\n    }\n\n    /// @notice Tests if a point is on the secp256k1 curve\n    /// @param Px The X coordinate of an EC point in affine representation\n    /// @param Py The Y coordinate of an EC point in affine representation\n    /// @return true if (Px, Py) is a valid secp256k1 point; false otherwise\n    function is_on_curve(uint256 Px, uint256 Py) public constant returns (bool) {\n        uint256 p = field_order;\n\n        if (Px >= p || Py >= p){\n            return false;\n        }\n\n        uint256 y2 = mulmod(Py, Py, p);\n        uint256 x3_plus_7 = addmod(mulmod(mulmod(Px, Px, p), Px, p), 7, p);\n        return y2 == x3_plus_7;\n    }\n\n    // https://ethresear.ch/t/you-can-kinda-abuse-ecrecover-to-do-ecmul-in-secp256k1-today/2384/4\n    function ecmulVerify(uint256 x1, uint256 y1, uint256 scalar, uint256 qx, uint256 qy) public constant returns(bool) {\n\t    uint256 curve_order = 0xFFFFFFFFFFFFFFFFFFFFFFFFFFFFFFFEBAAEDCE6AF48A03BBFD25E8CD0364141;\n\t    address signer = ecrecover(0, uint8(27 + (y1 % 2)), bytes32(x1), bytes32(mulmod(scalar, x1, curve_order)));\n\t    address xyAddress = address(uint256(keccak256(abi.encodePacked(qx, qy))) & 0x00FFFFFFFFFFFFFFFFFFFFFFFFFFFFFFFFFFFFFFFF);\n\t    return xyAddress == signer;\n\t}\n\n}",
  "sourcePath": "/Users/david/NuCypher/dev/numerology/contracts/Numerology.sol",
  "compiler": {
    "name": "solc",
    "version": "0.4.24+commit.e67f0147.Emscripten.clang"
  },
  "schemaVersion": "2.0.1",
  "updatedAt": "2018-10-17T11:46:56.078Z"
}