{
  "contractName": "Verifier",
  "abi": [
    {
      "constant": false,
      "inputs": [],
      "name": "jarl",
      "outputs": [
        {
          "name": "",
          "type": "bool"
        }
      ],
      "payable": false,
      "stateMutability": "nonpayable",
      "type": "function"
    },
    {
      "constant": false,
      "inputs": [
        {
          "name": "xcoord",
          "type": "uint256[9]"
        },
        {
          "name": "ycoord",
          "type": "uint256[9]"
        },
        {
          "name": "z",
          "type": "uint256"
        }
      ],
      "name": "verify",
      "outputs": [
        {
          "name": "",
          "type": "bool"
        }
      ],
      "payable": false,
      "stateMutability": "nonpayable",
      "type": "function"
    },
    {
      "constant": false,
      "inputs": [
        {
          "name": "P",
          "type": "uint256[3]"
        },
        {
          "name": "Q",
          "type": "uint256[3]"
        }
      ],
      "name": "eq_jacobian",
      "outputs": [
        {
          "name": "",
          "type": "bool"
        }
      ],
      "payable": false,
      "stateMutability": "nonpayable",
      "type": "function"
    },
    {
      "constant": false,
      "inputs": [
        {
          "name": "upper_half",
          "type": "uint256"
        },
        {
          "name": "lower_half",
          "type": "uint256"
        }
      ],
      "name": "hash_to_bn",
      "outputs": [
        {
          "name": "",
          "type": "uint256"
        }
      ],
      "payable": false,
      "stateMutability": "nonpayable",
      "type": "function"
    }
  ],
  "bytecode": "0x608060405234801561001057600080fd5b50611b5f806100206000396000f300608060405260043610610062576000357c0100000000000000000000000000000000000000000000000000000000900463ffffffff1680631ee44ab6146100675780633cce60b91461010c578063d6820c691461013b578063ec0a39ad14610186575b600080fd5b34801561007357600080fd5b506100f26004803603810190808061012001906009806020026040519081016040528092919082600960200280828437820191505050505091929192908061012001906009806020026040519081016040528092919082600960200280828437820191505050505091929192908035906020019092919050505061021f565b604051808215151515815260200191505060405180910390f35b34801561011857600080fd5b50610121610356565b604051808215151515815260200191505060405180910390f35b34801561014757600080fd5b506101706004803603810190808035906020019092919080359060200190929190505050610666565b6040518082815260200191505060405180910390f35b34801561019257600080fd5b50610205600480360381019080806060019060038060200260405190810160405280929190826003602002808284378201915050505050919291929080606001906003806020026040519081016040528092919082600360200280828437820191505050505091929192905050506106cb565b604051808215151515815260200191505060405180910390f35b60008061022a611a48565b610232611a48565b61023a611a6b565b7f3304f9445e1613127c38f6e260c14c5d03cfe8ba6a565d044d853c5a24d39df6935060806040519081016040528087815260200187815260200185815260200185815250925060806040519081016040528089600060098110151561029c57fe5b602002015181526020018860006009811015156102b557fe5b602002015181526020018960016009811015156102ce57fe5b602002015181526020018860016009811015156102e757fe5b602002015181525091506102fb838361085a565b9050610349816060604051908101604052808b600260098110151561031c57fe5b602002015181526020018a600260098110151561033557fe5b6020020151815260200160018152506106cb565b9450505050509392505050565b6000610360611a8e565b610368611a8e565b6000610120604051908101604052807fd25bd9acb0295ce05a03316da72e8d74c85602a2aece6cf8778455fa3991dafc81526020017fa9aba29bb6445de4a1f60190fcc9960e567f162509a23ce91a2e31eca77a103781526020017f7e5754d26f596ae24e0a3faec57b5ad6967372b75a9b23b662e10ccd14d92ca181526020017f58e2c92ece127684890689974c48693d2ed5d2865771359e1bac712a262c3aba81526020017f3925a1bdd3147ffaf276be29c753cda239f526d0c412fa4467651cdf8f1d99d081526020017f7b54003f17a96a1a112833f7cec577e156e1ce0429e77b2bbb3b5811f07c07bd81526020017ff2a09f73e56722d7383f18132b08b9bdb57fbec938fdf887645723bcb5679a1a81526020017fed4c703f2dcf7463d95712cbf742fe5d0e16f1a912aa15671135b8cae0ea68db81526020017f91e55aebad408f4d235d4c3e1ca3413b4e4b7479b89188e579497e444dcfa5908152509250610120604051908101604052807f9b27ab8817f8789b088cab772338acd133ea61c416995009e2e317c9eaf646bc81526020017f9c3e98e52a3c8db8e6569fd5f3d982e813638435096226b9197a44ada8b8b1e481526020017ff08b41bbf40568ae24b24e5ba39e87aa1b86c202f0809f4fb7e274b96096e21f81526020017f4ea5136ec580501f466a48f81e287d88a8a7aead898e1494aeb9c78ae0a23ba881526020017f6b2bae7fcb48e0f7d122db674acff6f0926638d29dd09fc536e0be8a4e22530581526020017fb801102df0f319e55d9e06c111a066d1287f3ba5235adfd097bd28564a2c237581526020017f5bc8f6eea2e551b70c440722c55b4216040a92c37aacbd00d07a50545a5be61a81526020017f0a67bb4c8ef3c0438b0ddfab892172965e6383ab335b13e4c56e2619f4902cff81526020017fe5f2d7384bab4b1098a438343c55c3cdff879219b2f6a59e9d6b12bb2be1f60881525091507fd7817f458a196703e7d1f53cdd0c9768ce9da3191579785dd7745019860fa370905061065e83838361021f565b935050505090565b600080600070014551231950b75fc4402da1732fc9bec091507ffffffffffffffffffffffffffffffffebaaedce6af48a03bbfd25e8cd03641409050808015156106ac57fe5b8286099450808015156106bb57fe5b8486086001019250505092915050565b6000806000806000806000806000807ffffffffffffffffffffffffffffffffffffffffffffffffffffffffefffffc2f98508880151561070757fe5b8b600260038110151561071657fe5b60200201518c600260038110151561072a57fe5b60200201510997508880151561073c57fe5b8c600260038110151561074b57fe5b60200201518d600260038110151561075f57fe5b60200201510996508880151561077157fe5b888d600060038110151561078157fe5b60200201510995508880151561079357fe5b878c60006003811015156107a357fe5b602002015109945084861415156107bd576000995061084b565b888015156107c757fe5b8b60026003811015156107d657fe5b602002015189099350888015156107e957fe5b8c60026003811015156107f857fe5b6020020151880992508880151561080b57fe5b848d600160038110151561081b57fe5b60200201510991508880151561082d57fe5b838c600160038110151561083d57fe5b602002015109905080821499505b50505050505050505092915050565b610862611a6b565b600061086c611a48565b600080600080600061087c611ab2565b610884611a6b565b6000807ffffffffffffffffffffffffffffffffffffffffffffffffffffffffefffffc2f9a5060009850600097505b600488101561095057600095508d886004811015156108ce57fe5b602002015194506000604051975061020088016040525b851561091e57600186161561090d576010860690508087890153601060088211028187030195505b6002860495506001870196506108e5565b50868a8960048110151561092e57fe5b60200201818152505088861115610943578598505b87806001019850506108b3565b6060604051908101604052808e600060048110151561096b57fe5b602002015181526020018e600160048110151561098457fe5b6020020151815260200160018152508460006004811015156109a257fe5b602002015160006004811015156109b557fe5b60200201819052506060604051908101604052808c8015156109d357fe5b8f60006004811015156109e257fe5b60200201517f7ae96a2b657c07106e64479eac3434e99cf0497512f58995c1396c28719501ee0981526020018e6001600481101515610a1d57fe5b602002015181526020016001815250846001600481101515610a3b57fe5b60200201516000600481101515610a4e57fe5b60200201819052506060604051908101604052808e6002600481101515610a7157fe5b602002015181526020018e6003600481101515610a8a57fe5b602002015181526020016001815250846002600481101515610aa857fe5b60200201516000600481101515610abb57fe5b60200201819052506060604051908101604052808c801515610ad957fe5b8f6002600481101515610ae857fe5b60200201517f7ae96a2b657c07106e64479eac3434e99cf0497512f58995c1396c28719501ee0981526020018e6003600481101515610b2357fe5b602002015181526020016001815250846003600481101515610b4157fe5b60200201516000600481101515610b5457fe5b6020020181905250610b8b846000600481101515610b6e57fe5b60200201516000600481101515610b8157fe5b602002015161129e565b9250610bbd83856000600481101515610ba057fe5b60200201516000600481101515610bb357fe5b6020020151611456565b846000600481101515610bcc57fe5b60200201516001600481101515610bdf57fe5b6020020181905250610c1783856000600481101515610bfa57fe5b60200201516001600481101515610c0d57fe5b6020020151611456565b846000600481101515610c2657fe5b60200201516002600481101515610c3957fe5b6020020181905250610c7183856000600481101515610c5457fe5b60200201516002600481101515610c6757fe5b6020020151611456565b846000600481101515610c8057fe5b60200201516003600481101515610c9357fe5b6020020181905250610cca846001600481101515610cad57fe5b60200201516000600481101515610cc057fe5b602002015161129e565b9250610cfc83856001600481101515610cdf57fe5b60200201516000600481101515610cf257fe5b6020020151611456565b846001600481101515610d0b57fe5b60200201516001600481101515610d1e57fe5b6020020181905250610d5683856001600481101515610d3957fe5b60200201516001600481101515610d4c57fe5b6020020151611456565b846001600481101515610d6557fe5b60200201516002600481101515610d7857fe5b6020020181905250610db083856001600481101515610d9357fe5b60200201516002600481101515610da657fe5b6020020151611456565b846001600481101515610dbf57fe5b60200201516003600481101515610dd257fe5b6020020181905250610e09846002600481101515610dec57fe5b60200201516000600481101515610dff57fe5b602002015161129e565b9250610e3b83856002600481101515610e1e57fe5b60200201516000600481101515610e3157fe5b6020020151611456565b846002600481101515610e4a57fe5b60200201516001600481101515610e5d57fe5b6020020181905250610e9583856002600481101515610e7857fe5b60200201516001600481101515610e8b57fe5b6020020151611456565b846002600481101515610ea457fe5b60200201516002600481101515610eb757fe5b6020020181905250610eef83856002600481101515610ed257fe5b60200201516002600481101515610ee557fe5b6020020151611456565b846002600481101515610efe57fe5b60200201516003600481101515610f1157fe5b6020020181905250610f48846003600481101515610f2b57fe5b60200201516000600481101515610f3e57fe5b602002015161129e565b9250610f7a83856003600481101515610f5d57fe5b60200201516000600481101515610f7057fe5b6020020151611456565b846003600481101515610f8957fe5b60200201516001600481101515610f9c57fe5b6020020181905250610fd483856003600481101515610fb757fe5b60200201516001600481101515610fca57fe5b6020020151611456565b846003600481101515610fe357fe5b60200201516002600481101515610ff657fe5b602002018190525061102e8385600360048110151561101157fe5b6020020151600260048110151561102457fe5b6020020151611456565b84600360048110151561103d57fe5b6020020151600360048110151561105057fe5b60200201819052508895505b600086111561128d5761106e8c61186e565b858060019003965050600097505b60048810156112885789600060048110151561109457fe5b602002015196508587015160001a9150600882111561119257600282600f038115156110bc57fe5b04905061118b8c606060405190810160405280878c6004811015156110dd57fe5b6020020151856004811015156110ef57fe5b6020020151600060038110151561110257fe5b60200201518152602001878c60048110151561111a57fe5b60200201518560048110151561112c57fe5b6020020151600160038110151561113f57fe5b60200201518f038152602001878c60048110151561115957fe5b60200201518560048110151561116b57fe5b6020020151600260038110151561117e57fe5b6020020151815250611456565b9b5061127b565b600082111561127a576002600183038115156111aa57fe5b0490506112778c606060405190810160405280878c6004811015156111cb57fe5b6020020151856004811015156111dd57fe5b602002015160006003811015156111f057fe5b60200201518152602001878c60048110151561120857fe5b60200201518560048110151561121a57fe5b6020020151600160038110151561122d57fe5b60200201518152602001878c60048110151561124557fe5b60200201518560048110151561125757fe5b6020020151600260038110151561126a57fe5b6020020151815250611456565b9b505b5b878060010198505061107c565b61105c565b505050505050505050505092915050565b6112a6611a6b565b60008060008060008060007ffffffffffffffffffffffffffffffffffffffffffffffffffffffffefffffc2f965060008960026003811015156112e557fe5b602002015114156112f55761144a565b88600060038110151561130457fe5b6020020151955088600160038110151561131a57fe5b602002015194508680151561132b57fe5b85860993508680151561133a57fe5b8780151561134457fe5b85880960040992508680151561135657fe5b8780151561136057fe5b87880960030991508680151561137257fe5b8780151561137c57fe5b84850888038880151561138b57fe5b848509089050808860006003811015156113a157fe5b602002018181525050868015156113b457fe5b878015156113be57fe5b888015156113c857fe5b8687096008098803888015156113da57fe5b898015156113e457fe5b848b0387088509088860016003811015156113fb57fe5b6020020181815250508680151561140e57fe5b8780151561141857fe5b8a600260038110151561142757fe5b6020020151870960020988600260038110151561144057fe5b6020020181815250505b50505050505050919050565b61145e611a6b565b600080600080600080600080611472611a6b565b6000808d600260038110151561148457fe5b60200201511415611497578b9a5061185e565b60008c60026003811015156114a857fe5b602002015114156114bb578c9a5061185e565b7ffffffffffffffffffffffffffffffffffffffffffffffffffffffffefffffc2f9950898015156114e857fe5b8d60026003811015156114f757fe5b60200201518e600260038110151561150b57fe5b60200201510998508980151561151d57fe5b8c600260038110151561152c57fe5b60200201518d600260038110151561154057fe5b60200201510997508980151561155257fe5b888e600060038110151561156257fe5b60200201510996508980151561157457fe5b8a80151561157e57fe5b898e600260038110151561158e57fe5b6020020151098e60016003811015156115a357fe5b6020020151099550898015156115b557fe5b898d60006003811015156115c557fe5b6020020151099450898015156115d757fe5b8a8015156115e157fe5b8a8f60026003811015156115f157fe5b6020020151098d600160038110151561160657fe5b6020020151099350848714801561161c57508386145b156116315761162a8d61129e565b9a5061185e565b8980151561163b57fe5b868b03850892508980151561164c57fe5b878b03860882600060038110151561166057fe5b6020020181815250508980151561167357fe5b82600060038110151561168257fe5b602002015183600060038110151561169657fe5b6020020151098260016003811015156116ab57fe5b602002018181525050898015156116be57fe5b8260006003811015156116cd57fe5b60200201518360016003811015156116e157fe5b6020020151098260026003811015156116f657fe5b6020020181815250508980151561170957fe5b82600160038110151561171857fe5b6020020151880990508980151561172b57fe5b8a80151561173557fe5b83600260038110151561174457fe5b60200201518c80151561175357fe5b84600209088b038b80151561176457fe5b858609088b600060038110151561177757fe5b6020020181815250508980151561178a57fe5b8a80151561179457fe5b8360026003811015156117a357fe5b602002015188098b038b8015156117b657fe5b8c8015156117c057fe5b8e60006003811015156117cf57fe5b60200201518e0385088609088b60016003811015156117ea57fe5b602002018181525050898015156117fd57fe5b8a80151561180757fe5b8d600260038110151561181657fe5b60200201518f600260038110151561182a57fe5b60200201510983600060038110151561183f57fe5b6020020151098b600260038110151561185457fe5b6020020181815250505b5050505050505050505092915050565b6000806000806000807ffffffffffffffffffffffffffffffffffffffffffffffffffffffffefffffc2f9550858015156118a457fe5b8760016003811015156118b357fe5b60200201516002099450858015156118c757fe5b8586099350858015156118d657fe5b8760006003811015156118e557fe5b602002015185099250858015156118f857fe5b8680151561190257fe5b88600060038110151561191157fe5b602002015189600060038110151561192557fe5b60200201510960030991508580151561193a57fe5b8680151561194457fe5b847ffffffffffffffffffffffffffffffffffffffffffffffffffffffffefffffc2d098780151561197157fe5b8485090890508087600060038110151561198757fe5b6020020181815250508580151561199a57fe5b868015156119a457fe5b878015156119ae57fe5b8687097f7fffffffffffffffffffffffffffffffffffffffffffffffffffffff7ffffe1709878015156119dd57fe5b888015156119e757fe5b848a0387088509088760016003811015156119fe57fe5b60200201818152505085801515611a1157fe5b876002600381101515611a2057fe5b60200201518609876002600381101515611a3657fe5b60200201818152505050505050505050565b608060405190810160405280600490602082028038833980820191505090505090565b606060405190810160405280600390602082028038833980820191505090505090565b61012060405190810160405280600990602082028038833980820191505090505090565b610600604051908101604052806004905b611acb611ae1565b815260200190600190039081611ac35790505090565b610180604051908101604052806004905b611afa611b10565b815260200190600190039081611af25790505090565b6060604051908101604052806003906020820280388339808201915050905050905600a165627a7a72305820489964e1440c674e0edc4d26782ed9f5bf5aaac7658d82df71e7578195e248700029",
  "source": "pragma solidity ^0.4.24;\n\nimport \"./FastSecp256k1.sol\";\n\ncontract Verifier {\n\n  function jarl() public returns (bool){\n/*\ne = '03a6eed4bb507beba20f8f90e7092d700869825820c6fc11d76949fdd31c3c9e81'\nv = '023c1520224ec2718f125789aa571c30eef197580d3904a6a7b9d221fa720b07a3'\n\ne1 = '028f9c8b0aeae3573d160d9c7d2c19429bb151ca968cd6e05c4e32e7d6346fd938'\nv1 = '02568f041f4f5f1aa1a2e69e6b45ca74a980e01e8a3fec50f3776157d6217a1a70'\n\ne2 = '034bf61aa8f74f63424a9d164265cef9ca3d1ca8cdc1fb0316ac039c343e27d0dd'\nv2 = '020715649f4b9f51f65b9d4d28d6098fede1ebda8d4194951b15c63170a12859d0'\n\nz = 'bdd16222276cfdaf9b701993a59c0818cda573143614eeca7128b4885423c1aa'\n*/\n\n/*\n    (uint8 e_sign, uint256 e_x) = (3, 0xa6eed4bb507beba20f8f90e7092d700869825820c6fc11d76949fdd31c3c9e81);\n\n    (uint8 e1_sign, uint256 e1_x) = (2, 0x8f9c8b0aeae3573d160d9c7d2c19429bb151ca968cd6e05c4e32e7d6346fd938);\n\n    (uint8 e2_sign, uint256 e2_x) = (3, 0x4bf61aa8f74f63424a9d164265cef9ca3d1ca8cdc1fb0316ac039c343e27d0dd);\n\n    uint256 z = 0xbdd16222276cfdaf9b701993a59c0818cda573143614eeca7128b4885423c1aa;\n\n    uint8[3] memory sign = [e_sign, e1_sign, e2_sign];\n    uint256[3] memory xcoord = [e_x, e1_x, e2_x];\n*/\n\n\n// (uint256 e_x, uint256 e_y) = (76828902008291123852927592471225026896840129159542961649995543199461581790724, 56747880152442877359480041929398112655824894039542519756839776479967769316072);\n// (uint256 e1_x, uint256 e1_y) = (23003209272544902989840086177683618802089572662340315680665399336321613720588, 5875173269722715307624944568162279144117514140665879754483413709574034578005);\n// (uint256 e2_x, uint256 e2_y) = (92204819666452577630186600895109639395863314533237299952055030972939295120452, 49028691468845285246042821420678887287518182854750678019159867718610801144632);\n// (uint256 v_x, uint256 v_y) = (6448779340272726202907931879024552606446881824004184421628350453009334202974, 23013042630809296712304955371817849601496004973029152245476407817743977475636);\n // (uint256 v1_x, uint256 v1_y) = (82613565887149254156592858717036735481321989600964328033289523261076327845666, 35783201041003520156355876436294871581363685112565905429968137173140178929929);\n // (uint256 v2_x, uint256 v2_y) = (3335666372127016251909922225859123506371104767553369471664557063161672696198, 19181896828939476931959288924723919269592991311210324509196956837786634312370);\n// (uint256 u_x, uint256 u_y) = (109743505389736956422343706815535711271056474806867965264242884349072551418394, 41515542897256463165637998922821942219400299669776566567197487891225216017946);\n// (uint256 u1_x, uint256 u1_y) = (84308578430075271882149240464394649766102507037125510143755681127773600117256, 87120408027982512648244654335658870002649971834148389745103381596289811150436);\n// (uint256 u2_x, uint256 u2_y) = (91017028482034773171805385757889416638102577853745562931839696839255313878669, 92703384452840925448085247238921874069118801617240655544739998899706124273140);\n//uint256 z = 29170632128814124718210722662888726723960521240266284364476774971803484430477;\n//uint256 h = 56494106360898039718343176947902135063781549649836539568907079060068125842391;\n\nuint256[9] memory xs = [95147983620000833836598638926838565417591690883927084769653755377076107598588, 76744124539543998376673711002857407041142741818026851297373306868928840601655, 57145720036135663488286556745600506644523199163800857869014402491467731381409, 40204226624842535932446290181684088348249516400020962152186852025515627002554, 25848322009464064450919180525380269025194329001617243054514949144261303310800, 55782897230151665859075838049337866949597588287042880053543522143561689335741, 109743505389736956422343706815535711271056474806867965264242884349072551418394, 107333200190049166844662472487136345210507425912593599426636294183456093137115, 65990598533412139064669628144790164251438302247595882509184839598918849242512];\nuint256[9] memory ys = [70178582433635092902270099900437647406790644028003264238591512137302409627324, 70671404140726341915202996812649024736838513898052259410749750320198877491684, 108801129082709121037722407375853179351218847920733661960904326655345935442463, 35572066074757240470683181234988968882984939268363401590145424444210926468008, 48474653571380918168790971496150380271448940762787714682415921624596904825605, 83227442652899898531334499726784130663520032013452218144437905010573517267829, 41515542897256463165637998922821942219400299669776566567197487891225216017946, 4706406424082252783429492634141393895560716755651211280207970118186101124351, 104008704708434833096397493666809137711572891892517950271210368917814464607752];\nuint256 z = 97476064113324593706654316545116846564317412959958334174760798622442291438448;\n//uint256 h = 23076743044030859900750684249730695196193450169730667016757830080314706468342;\n\n\n// uint256[3] memory xcoord = [e_x, e1_x, e2_x];\n// uint256[3] memory ycoord = [e_y, e1_y, e2_y];\n\n    return verify(xs, ys, z);\n\n  }\n\n  //function verify(uint8 e_sign, uint256 e_x, uint8 e1_sign, uint256 e1_x, uint8 e2_sign, uint256 e2_x, uint256 z) public returns (bool){\n  function verify(uint256[9] xcoord, uint256[9] ycoord, uint256 z) public returns (bool){\n\n    // uint256[2] memory  p = [xcoord[0], ycoord[0]];\n    // uint256[2] memory p1 = [xcoord[1], ycoord[1]];\n    // uint256[2] memory p2 = [xcoord[2], ycoord[2]];\n\n    //bytes memory input = hex\"03a6eed4bb507beba20f8f90e7092d700869825820c6fc11d76949fdd31c3c9e81028f9c8b0aeae3573d160d9c7d2c19429bb151ca968cd6e05c4e32e7d6346fd938034bf61aa8f74f63424a9d164265cef9ca3d1ca8cdc1fb0316ac039c343e27d0dd023c1520224ec2718f125789aa571c30eef197580d3904a6a7b9d221fa720b07a302568f041f4f5f1aa1a2e69e6b45ca74a980e01e8a3fec50f3776157d6217a1a70020715649f4b9f51f65b9d4d28d6098fede1ebda8d4194951b15c63170a12859d002f2a09f73e56722d7383f18132b08b9bdb57fbec938fdf887645723bcb5679a1a029566538eca818af326ba4a57c0558d9f7524f92d20b69cf3e901374338d0007a02f3f9169d2b28394ed37ec42b9c5d01efa374116f03de027a0f661e3b4113fef3\";\n    \n    // FALLA CON ESTO (no con los anteriores):\n    //bytes memory input = hex'03a6eed4bb507beba20f8f90e7092d700869825820c6fc11d76949fdd31c3c9e81028f9c8b0aeae3573d160d9c7d2c19429bb151ca968cd6e05c4e32e7d6346fd938034bf61aa8f74f63424a9d164265cef9ca3d1ca8cdc1fb0316ac039c343e27d0dd023c1520224ec2718f125789aa571c30eef197580d3904a6a7b9d221fa720b07a3';\n\n    //BLAKE2b blakec = new BLAKE2b();\n    //BLAKE2b.BLAKE2b_ctx memory ctx;\n    /*blakec.blake2b_init();\n    blakec.blake2b_update(hex'03a6eed4bb507beba20f8f90e7092d700869825820c6fc11d76949fdd31c3c9e81');\n    blakec.blake2b_update(hex'028f9c8b0aeae3573d160d9c7d2c19429bb151ca968cd6e05c4e32e7d6346fd938');\n    blakec.blake2b_update(hex'034bf61aa8f74f63424a9d164265cef9ca3d1ca8cdc1fb0316ac039c343e27d0dd');\n    blakec.blake2b_update(hex'023c1520224ec2718f125789aa571c30eef197580d3904a6a7b9d221fa720b07a3');\n    blakec.blake2b_update(hex'02568f041f4f5f1aa1a2e69e6b45ca74a980e01e8a3fec50f3776157d6217a1a70');\n    blakec.blake2b_update(hex'020715649f4b9f51f65b9d4d28d6098fede1ebda8d4194951b15c63170a12859d0');\n    blakec.blake2b_update(hex'02f2a09f73e56722d7383f18132b08b9bdb57fbec938fdf887645723bcb5679a1a');\n    blakec.blake2b_update(hex'029566538eca818af326ba4a57c0558d9f7524f92d20b69cf3e901374338d0007a');\n    blakec.blake2b_update(hex'02f3f9169d2b28394ed37ec42b9c5d01efa374116f03de027a0f661e3b4113fef3');\n    \n    uint64[8] memory out = blakec.blake2b_finalize();\n    return (out[0], out[7]); // == expected_h;\n*/\n    //(uint256 blake_upper, uint256 blake_lower) = blake(input);\n    //uint256 h = 0x08c285be9f5e7c3a2c4f5a09c41976acdc5cb31d054065a0f54cb4bc5a028d51; //hash_to_bn(blake_upper, blake_lower);\n    uint256 h = 23076743044030859900750684249730695196193450169730667016757830080314706468342;\n\n    uint256[4] memory k_l = [z, z, h, h];\n    uint256[4] memory P_Q = [xcoord[0], ycoord[0], xcoord[1], ycoord[1]];\n\n    // uint[3] memory eq_lhs  = Secp256k1._mul(z, p);\n\n    // uint[3] memory eq_rhs = Secp256k1._mul(h, p1);\n    // Secp256k1._addMixedM2001b(eq_rhs, p2);\n    \n    uint256[3] memory ez_e1h = FastSecp256k1._sim_mul(k_l, P_Q);\n\n    return eq_jacobian(ez_e1h, [xcoord[2], ycoord[2], 1]);\n\n    // TODO: Shamir's trick\n    // uint[3] memory e_z  = _mul(z, e);\n    // uint[3] memory e1_h = _mul(h, e1);\n    \n    // uint[3] memory lhs = _add(e_z, e1_h);\n    // uint[3] memory rhs = _mul(1, e2);\n\n  }\n\n  function eq_jacobian(uint256[3] memory P, uint256[3] memory Q) public returns(bool){\n    // Field size\n    uint p = 0xFFFFFFFFFFFFFFFFFFFFFFFFFFFFFFFFFFFFFFFFFFFFFFFFFFFFFFFEFFFFFC2F;\n\n    uint256 Q_z_squared = mulmod(Q[2], Q[2], p);\n    uint256 P_z_squared = mulmod(P[2], P[2], p);\n    uint256 eq_x_lhs = mulmod(P[0], Q_z_squared, p);\n    uint256 eq_x_rhs = mulmod(Q[0], P_z_squared, p);\n\n    if (eq_x_lhs != eq_x_rhs){\n      return false;\n    }\n\n    uint256 Q_z_cubed = mulmod(Q_z_squared, Q[2], p);\n    uint256 P_z_cubed = mulmod(P_z_squared, P[2], p);\n    uint256 eq_y_lhs = mulmod(P[1], Q_z_cubed, p);\n    uint256 eq_y_rhs = mulmod(Q[1], P_z_cubed, p);\n\n    return eq_y_lhs == eq_y_rhs;\n    \n  }\n\n  // function eq_affine_to_jacobian(uint256[2] memory P_affine, uint256[3] memory Q_jacobian) public returns(bool){\n  //   // Field size\n  //   uint constant p = 0xFFFFFFFFFFFFFFFFFFFFFFFFFFFFFFFFFFFFFFFFFFFFFFFFFFFFFFFEFFFFFC2F;\n\n  //   uint256 Q_z_squared = mulmod(Q_jacobian[2], Q_jacobian[2], p);\n  //   uint256 eq_x_rhs = \n\n  //   uint256 Q_z_cubed = mulmod(Q_z_squared, Q_jacobian[2], p);\n  // }\n\n  function hash_to_bn(uint256 upper_half, uint256 lower_half) public returns (uint256){\n      uint256 delta = 432420386565659656852420866394968145600;\n      uint256 n_minus_1 = 115792089237316195423570985008687907852837564279074904382605163141518161494336;\n      \n      upper_half = mulmod(upper_half, delta, n_minus_1);\n      return 1 + addmod(upper_half, lower_half, n_minus_1);\n  } \n\n\n  /*\n\n  function blake2b(bytes input) public returns (uint64, uint64){\n   BLAKE2b blakeh = new BLAKE2b();\n   uint64[8] memory result = blakeh.blake2b(input, \"\", 64);\n\n   return (result[0], result[7]);\n\n  }\n\n  function blake(bytes input) public returns (uint256, uint256){\n\n   BLAKE2b blakec = new BLAKE2b();\n   uint64[8] memory result = blakec.blake2b(input, \"\", 64);\n\n   uint256 upper = result[0];\n   upper = ((2**64) * upper) | result[1];\n   upper = ((2**64) * upper) | result[2];\n   upper = ((2**64) * upper) | result[3];\n   uint256 lower = result[4];\n   lower = ((2**64) * lower) | result[5];\n   lower = ((2**64) * lower) | result[6];\n   lower = ((2**64) * lower) | result[7];\n\n   return (upper, lower);\n\n/*\n   blake(\"abc\") = \n\n   [ BigNumber {\n    s: 1,\n    e: 76,\n    c: \n     [ 8435748,\n       67634221525890,\n       96765654763970,\n       68470538857494,\n       92364571728011,\n       4399717868241 ] },\n  BigNumber {\n    s: 1,\n    e: 76,\n    c: \n     [ 5677899,\n       16118943144964,\n       54475175241448,\n       17205299845906,\n       69279152998681,\n       73780220156195 ] } ]\n*/\n\n  //} \n\n}\n\n",
  "sourcePath": "/home/david/NuCypher/dev/rever/contracts/verifier.sol",
  "compiler": {
    "name": "solc",
    "version": "0.4.24+commit.e67f0147.Emscripten.clang"
  },
  "schemaVersion": "2.0.0",
  "updatedAt": "2018-07-03T18:56:12.787Z"
}