{
  "contractName": "Verifier",
  "abi": [
    {
      "constant": true,
      "inputs": [],
      "name": "test_proof_verification",
      "outputs": [
        {
          "name": "",
          "type": "bool"
        }
      ],
      "payable": false,
      "stateMutability": "view",
      "type": "function"
    },
    {
      "constant": true,
      "inputs": [],
      "name": "test_proof_verification_hack",
      "outputs": [
        {
          "name": "",
          "type": "bool"
        }
      ],
      "payable": false,
      "stateMutability": "view",
      "type": "function"
    },
    {
      "constant": true,
      "inputs": [],
      "name": "test_add_eq_jac",
      "outputs": [
        {
          "name": "",
          "type": "bool"
        }
      ],
      "payable": false,
      "stateMutability": "view",
      "type": "function"
    }
  ],
  "bytecode": "0x608060405234801561001057600080fd5b506129f8806100206000396000f300608060405260043610610057576000357c0100000000000000000000000000000000000000000000000000000000900463ffffffff1680630c47e2dc1461005c5780635d03467f1461008b578063aabfb91a146100ba575b600080fd5b34801561006857600080fd5b506100716100e9565b604051808215151515815260200191505060405180910390f35b34801561009757600080fd5b506100a061043c565b604051808215151515815260200191505060405180910390f35b3480156100c657600080fd5b506100cf610667565b604051808215151515815260200191505060405180910390f35b60006100f361286e565b6100fb612891565b610103612891565b60008060006101106128b4565b6101186128b4565b6080604051908101604052807fffffffffffffffffffffffffffffffffbcdc62ff01d6667a06295857cd6cbfc981526020017fffffffffffffffffffffffffffffffffd777807835a124f17f54707254d8ee2b81526020017fffffffffffffffffffffffffffffffff74aaf596278f006c7d0e7291ff9e56fa81526020017ffffffffffffffffffffffffffffffffffa4b0c0573e9acd35ff0cc4329fc9da081525097506080604051908101604052807f79be667ef9dcbbac55a06295ce870b07029bfcdb2dce28d959f2815b16f8179881526020017f483ada7726a3c4655da4fbfc0e1108a8fd17b448a68554199c47d08ffb10d4b881526020017fc6047f9441ed7d6d3045406e95c07cd85c778e4b8cef3ca7abac09b95c709ee581526020017f1ae168fea63dc339a3c58419466ceaeef7f632653266d0e1236431a950cfe52a81525096506000945060009350600092505b60048310156102c557610291888460048110151561028757fe5b6020020151610cac565b878560048110151561029f57fe5b60200201819650828152505050848411156102b8578394505b828060010193505061026d565b6102d0868689610d52565b91506060604051908101604052807f7635e27fba8e1f779dcfdde1b1eacbe0571fbe39ecf6056d29ba4bd3ef5e22f281526020017f197888e5cec769ac2f1eb65dbcbc0e49c00a8cdf01f8030d8286b68c1933fb1881526020016001815250905073__Numerology____________________________63ec0a39ad83836040518363ffffffff167c01000000000000000000000000000000000000000000000000000000000281526004018083600360200280838360005b838110156103a3578082015181840152602081019050610388565b5050505090500182600360200280838360005b838110156103d15780820151818401526020810190506103b6565b505050509050019250505060206040518083038186803b1580156103f457600080fd5b505af4158015610408573d6000803e3d6000fd5b505050506040513d602081101561041e57600080fd5b81019080805190602001909291905050509850505050505050505090565b60008060008060008060007faddcb45773b26a2f8ac2143627d54f47a12aab533dc1b41b4e791985e9eca49695507f72da5adb3a30a2cf147d309b0cf58c76b322c82a5edae164e13dbeed6429c41d94507ff07716879380e987f8b5551a1d989068d0003061088a869a33ceb9848771c6fd93507f2447ed4564b75b0f9ff84013aaa37c2ab67a2c621b0edc91a06895f19a93aebb92507f9ca8f6ff6a2eb6f62787f70b9f7c4939d1a3890ec87343e4f6716f9f6867eb8691507f290c40f22995dc8b956d2c63ec060d332d082124d638ed618891171db8bc206f905073__Numerology____________________________6365c6c84e60408051908101604052808581526020018481525061057a60408051908101604052808b81526020018a81525060408051908101604052808a815260200189815250611070565b6040518363ffffffff167c01000000000000000000000000000000000000000000000000000000000281526004018083600260200280838360005b838110156105d05780820151818401526020810190506105b5565b5050505090500182600360200280838360005b838110156105fe5780820151818401526020810190506105e3565b505050509050019250505060206040518083038186803b15801561062157600080fd5b505af4158015610635573d6000803e3d6000fd5b505050506040513d602081101561064b57600080fd5b8101908080519060200190929190505050965050505050505090565b60006106716128d7565b610679612891565b6106816128f9565b600080600060408051908101604052807f1787f38d854231dfec2b27a0f621414d10bfa95970b3e576aed29e1e8287e51e81526020017f60d4afe7ba1967e921f22bb9fbd277f10cfe04810451d7c549ae9099c4a8b67781525095506080604051908101604052807fa6ecb3f599964fe04c72e486a8f90172493c21f4185f1ab9a7fe05659480c54881526020017fdf67fd3f4255826c234a5262adc70e14a6d42f13ee55b65e885e666e1dd5d3f581526020017f3f75f99c8df97f477b700407dd7a956cee2e4915f2df4fa9b11c403935c05dc581526020017f497495d2e486fd4cff4929265eac91711014b9d6ad1c2220d709e20d466627fd815250945060c0604051908101604052807faddcb45773b26a2f8ac2143627d54f47a12aab533dc1b41b4e791985e9eca49681526020017f72da5adb3a30a2cf147d309b0cf58c76b322c82a5edae164e13dbeed6429c41d81526020017ff07716879380e987f8b5551a1d989068d0003061088a869a33ceb9848771c6fd81526020017f2447ed4564b75b0f9ff84013aaa37c2ab67a2c621b0edc91a06895f19a93aebb81526020017f9ca8f6ff6a2eb6f62787f70b9f7c4939d1a3890ec87343e4f6716f9f6867eb8681526020017f290c40f22995dc8b956d2c63ec060d332d082124d638ed618891171db8bc206f815250935073__Numerology____________________________63ec0a39ad6109196060604051908101604052808860006006811015156108a957fe5b602002015181526020018860016006811015156108c257fe5b6020020151815260200160018152506060604051908101604052808960026006811015156108ec57fe5b6020020151815260200189600360068110151561090557fe5b602002015181526020016001815250611266565b60606040519081016040528088600460068110151561093457fe5b6020020151815260200188600560068110151561094d57fe5b6020020151815260200160018152506040518363ffffffff167c01000000000000000000000000000000000000000000000000000000000281526004018083600360200280838360005b838110156109b2578082015181840152602081019050610997565b5050505090500182600360200280838360005b838110156109e05780820151818401526020810190506109c5565b505050509050019250505060206040518083038186803b158015610a0357600080fd5b505af4158015610a17573d6000803e3d6000fd5b505050506040513d6020811015610a2d57600080fd5b8101908080519060200190929190505050925073__Numerology____________________________63022079d9866000600481101515610a6957fe5b6020020151876001600481101515610a7d57fe5b6020020151896000600281101515610a9157fe5b6020020151886000600681101515610aa557fe5b6020020151896001600681101515610ab957fe5b60200201516040518663ffffffff167c0100000000000000000000000000000000000000000000000000000000028152600401808681526020018581526020018481526020018381526020018281526020019550505050505060206040518083038186803b158015610b2a57600080fd5b505af4158015610b3e573d6000803e3d6000fd5b505050506040513d6020811015610b5457600080fd5b8101908080519060200190929190505050915073__Numerology____________________________63022079d9866002600481101515610b9057fe5b6020020151876003600481101515610ba457fe5b6020020151896001600281101515610bb857fe5b6020020151886002600681101515610bcc57fe5b6020020151896003600681101515610be057fe5b60200201516040518663ffffffff167c0100000000000000000000000000000000000000000000000000000000028152600401808681526020018581526020018481526020018381526020018281526020019550505050505060206040518083038186803b158015610c5157600080fd5b505af4158015610c65573d6000803e3d6000fd5b505050506040513d6020811015610c7b57600080fd5b81019080805190602001909291905050509050828015610c985750815b8015610ca15750805b965050505050505090565b60008060008060008512610cc1576001610ce3565b7fffffffffffffffffffffffffffffffffffffffffffffffffffffffffffffffff5b91508482029050600092506000604051945061012c85016040525b6000821115610d44576001821615610d3357601082069050601060088211028183030191506008830260080383820201848601535b600184019350600282049150610cfe565b508383935093505050915091565b610d5a6128b4565b610d6261291c565b6000806000610d71848761167e565b8692505b600083111561106557828060019003935050610d9085611ebd565b82886000600481101515610da057fe5b6020020151019050805160001a91506008821115610dfb57610df685856000600481101515610dcb57fe5b6020020151600285600f03811515610ddf57fe5b04600481101515610dec57fe5b602002015161208b565b610e44565b6000821115610e4357610e4285856000600481101515610e1757fe5b6020020151600260018603811515610e2b57fe5b04600481101515610e3857fe5b602002015161239b565b5b5b82886001600481101515610e5457fe5b6020020151019050805160001a91506008821115610eaf57610eaa85856001600481101515610e7f57fe5b6020020151600285600f03811515610e9357fe5b04600481101515610ea057fe5b602002015161208b565b610ef8565b6000821115610ef757610ef685856001600481101515610ecb57fe5b6020020151600260018603811515610edf57fe5b04600481101515610eec57fe5b602002015161239b565b5b5b82886002600481101515610f0857fe5b6020020151019050805160001a91506008821115610f6357610f5e85856002600481101515610f3357fe5b6020020151600285600f03811515610f4757fe5b04600481101515610f5457fe5b602002015161208b565b610fac565b6000821115610fab57610faa85856002600481101515610f7f57fe5b6020020151600260018603811515610f9357fe5b04600481101515610fa057fe5b602002015161239b565b5b5b82886003600481101515610fbc57fe5b6020020151019050805160001a915060088211156110175761101285856003600481101515610fe757fe5b6020020151600285600f03811515610ffb57fe5b0460048110151561100857fe5b602002015161208b565b611060565b600082111561105f5761105e8585600360048110151561103357fe5b602002015160026001860381151561104757fe5b0460048110151561105457fe5b602002015161239b565b5b5b610d75565b505050509392505050565b6110786128b4565b6000806000806000806000806000807ffffffffffffffffffffffffffffffffffffffffffffffffffffffffefffffc2f99508c60006002811015156110b957fe5b602002015198508c60016002811015156110cf57fe5b602002015197508b60006002811015156110e557fe5b602002015196508b60016002811015156110fb57fe5b60200201519550868914801561111057508588145b156111415761113a6060604051908101604052808b81526020018a81526020016001815250612696565b9a50611256565b8980151561114b57fe5b888b03870894508980151561115c57fe5b898b03880893508980151561116d57fe5b84850992508980151561117c57fe5b84840991508980151561118b57fe5b838a0990508980151561119a57fe5b8a8015156111a457fe5b838c8015156111af57fe5b84600209088b038b8015156111c057fe5b878809088b60006003811015156111d357fe5b602002018181525050898015156111e657fe5b8a8015156111f057fe5b838a098b038b8015156111ff57fe5b8c80151561120957fe5b8e600060038110151561121857fe5b60200201518e0385088809088b600160038110151561123357fe5b602002018181525050838b600260038110151561124c57fe5b6020020181815250505b5050505050505050505092915050565b61126e6128b4565b6000806000806000806000806112826128b4565b6000808d600260038110151561129457fe5b602002015114156112a7578b9a5061166e565b60008c60026003811015156112b857fe5b602002015114156112cb578c9a5061166e565b7ffffffffffffffffffffffffffffffffffffffffffffffffffffffffefffffc2f9950898015156112f857fe5b8d600260038110151561130757fe5b60200201518e600260038110151561131b57fe5b60200201510998508980151561132d57fe5b8c600260038110151561133c57fe5b60200201518d600260038110151561135057fe5b60200201510997508980151561136257fe5b888e600060038110151561137257fe5b60200201510996508980151561138457fe5b8a80151561138e57fe5b898e600260038110151561139e57fe5b6020020151098e60016003811015156113b357fe5b6020020151099550898015156113c557fe5b898d60006003811015156113d557fe5b6020020151099450898015156113e757fe5b8a8015156113f157fe5b8a8f600260038110151561140157fe5b6020020151098d600160038110151561141657fe5b6020020151099350848714801561142c57508386145b156114415761143a8d612696565b9a5061166e565b8980151561144b57fe5b868b03850892508980151561145c57fe5b878b03860882600060038110151561147057fe5b6020020181815250508980151561148357fe5b82600060038110151561149257fe5b60200201518360006003811015156114a657fe5b6020020151098260016003811015156114bb57fe5b602002018181525050898015156114ce57fe5b8260006003811015156114dd57fe5b60200201518360016003811015156114f157fe5b60200201510982600260038110151561150657fe5b6020020181815250508980151561151957fe5b82600160038110151561152857fe5b6020020151880990508980151561153b57fe5b8a80151561154557fe5b83600260038110151561155457fe5b60200201518c80151561156357fe5b84600209088b038b80151561157457fe5b858609088b600060038110151561158757fe5b6020020181815250508980151561159a57fe5b8a8015156115a457fe5b8360026003811015156115b357fe5b602002015188098b038b8015156115c657fe5b8c8015156115d057fe5b8e60006003811015156115df57fe5b60200201518e0385088609088b60016003811015156115fa57fe5b6020020181815250508980151561160d57fe5b8a80151561161757fe5b8d600260038110151561162657fe5b60200201518f600260038110151561163a57fe5b60200201510983600060038110151561164f57fe5b6020020151098b600260038110151561166457fe5b6020020181815250505b5050505050505050505092915050565b60008061168961294b565b6116916128b4565b7ffffffffffffffffffffffffffffffffffffffffffffffffffffffffefffffc2f93507f7ae96a2b657c07106e64479eac3434e99cf0497512f58995c1396c28719501ee92508560006004811015156116e657fe5b6020020151915060606040519081016040528086600060048110151561170857fe5b6020020151815260200186600160048110151561172157fe5b60200201518152602001600181525082600060048110151561173f57fe5b602002018190525061176382600060048110151561175957fe5b6020020151612696565b90506117828183600060048110151561177857fe5b6020020151611266565b82600160048110151561179157fe5b60200201819052506117b6818360016004811015156117ac57fe5b6020020151611266565b8260026004811015156117c557fe5b60200201819052506117ea818360026004811015156117e057fe5b6020020151611266565b8260036004811015156117f957fe5b60200201819052506060604051908101604052808580151561181757fe5b87600060048110151561182657fe5b60200201518609815260200186600160048110151561184157fe5b60200201518152602001600181525086600160048110151561185f57fe5b6020020151600060048110151561187257fe5b60200201819052506060604051908101604052808580151561189057fe5b84600160048110151561189f57fe5b602002015160006003811015156118b257fe5b6020020151860981526020018360016004811015156118cd57fe5b602002015160016003811015156118e057fe5b602002015181526020018360016004811015156118f957fe5b6020020151600260038110151561190c57fe5b602002015181525086600160048110151561192357fe5b6020020151600160048110151561193657fe5b60200201819052506060604051908101604052808580151561195457fe5b84600260048110151561196357fe5b6020020151600060038110151561197657fe5b60200201518609815260200183600260048110151561199157fe5b602002015160016003811015156119a457fe5b602002015181526020018360026004811015156119bd57fe5b602002015160026003811015156119d057fe5b60200201518152508660016004811015156119e757fe5b602002015160026004811015156119fa57fe5b602002018190525060606040519081016040528085801515611a1857fe5b846003600481101515611a2757fe5b60200201516000600381101515611a3a57fe5b602002015186098152602001836003600481101515611a5557fe5b60200201516001600381101515611a6857fe5b60200201518152602001836003600481101515611a8157fe5b60200201516002600381101515611a9457fe5b6020020151815250866001600481101515611aab57fe5b60200201516003600481101515611abe57fe5b6020020181905250856002600481101515611ad557fe5b60200201519150606060405190810160405280866002600481101515611af757fe5b60200201518152602001866003600481101515611b1057fe5b602002015181526020016001815250826000600481101515611b2e57fe5b6020020181905250611b52826000600481101515611b4857fe5b6020020151612696565b9050611b7181836000600481101515611b6757fe5b6020020151611266565b826001600481101515611b8057fe5b6020020181905250611ba581836001600481101515611b9b57fe5b6020020151611266565b826002600481101515611bb457fe5b6020020181905250611bd981836002600481101515611bcf57fe5b6020020151611266565b826003600481101515611be857fe5b602002018190525060606040519081016040528085801515611c0657fe5b876002600481101515611c1557fe5b602002015186098152602001866003600481101515611c3057fe5b602002015181526020016001815250866003600481101515611c4e57fe5b60200201516000600481101515611c6157fe5b602002018190525060606040519081016040528085801515611c7f57fe5b846001600481101515611c8e57fe5b60200201516000600381101515611ca157fe5b602002015186098152602001836001600481101515611cbc57fe5b60200201516001600381101515611ccf57fe5b60200201518152602001836001600481101515611ce857fe5b60200201516002600381101515611cfb57fe5b6020020151815250866003600481101515611d1257fe5b60200201516001600481101515611d2557fe5b602002018190525060606040519081016040528085801515611d4357fe5b846002600481101515611d5257fe5b60200201516000600381101515611d6557fe5b602002015186098152602001836002600481101515611d8057fe5b60200201516001600381101515611d9357fe5b60200201518152602001836002600481101515611dac57fe5b60200201516002600381101515611dbf57fe5b6020020151815250866003600481101515611dd657fe5b60200201516002600481101515611de957fe5b602002018190525060606040519081016040528085801515611e0757fe5b846003600481101515611e1657fe5b60200201516000600381101515611e2957fe5b602002015186098152602001836003600481101515611e4457fe5b60200201516001600381101515611e5757fe5b60200201518152602001836003600481101515611e7057fe5b60200201516002600381101515611e8357fe5b6020020151815250866003600481101515611e9a57fe5b60200201516003600481101515611ead57fe5b6020020181905250505050505050565b600080600080600080600080886002600381101515611ed857fe5b602002015197506000881415611eed57612080565b7ffffffffffffffffffffffffffffffffffffffffffffffffffffffffefffffc2f9650886000600381101515611f1f57fe5b6020020151955086801515611f3057fe5b896001600381101515611f3f57fe5b6020020151600209945086801515611f5357fe5b858609935086801515611f6257fe5b868509925086801515611f7157fe5b87801515611f7b57fe5b878809600309915086801515611f8d57fe5b87801515611f9757fe5b847ffffffffffffffffffffffffffffffffffffffffffffffffffffffffefffffc2d0988801515611fc457fe5b84850908905080896000600381101515611fda57fe5b60200201818152505086801515611fed57fe5b87801515611ff757fe5b8880151561200157fe5b8687097f7fffffffffffffffffffffffffffffffffffffffffffffffffffffff7ffffe17098880151561203057fe5b8980151561203a57fe5b848b03870885090889600160038110151561205157fe5b6020020181815250508680151561206457fe5b88860989600260038110151561207657fe5b6020020181815250505b505050505050505050565b60008060008060008060008060008060008c60026003811015156120ab57fe5b60200201519a508b60026003811015156120c157fe5b602002015199507ffffffffffffffffffffffffffffffffffffffffffffffffffffffffefffffc2f985060008b141561216c578b600060038110151561210357fe5b60200201518d600060038110151561211757fe5b6020020181815250508b600160038110151561212f57fe5b602002015189038d600160038110151561214557fe5b602002018181525050898d600260038110151561215e57fe5b60200201818152505061238c565b60008a141561217a5761238c565b8880151561218457fe5b8b8c0997508880151561219357fe5b888d60006003811015156121a357fe5b6020020151099650888015156121b557fe5b898015156121bf57fe5b898d098d60016003811015156121d157fe5b60200201518b03099550888015156121e557fe5b8a8b099750888015156121f457fe5b888e600060038110151561220457fe5b60200201510994508880151561221657fe5b8980151561222057fe5b898c098e600160038110151561223257fe5b6020020151099350868514801561224857508584145b1561226c5760008d600260038110151561225e57fe5b60200201818152505061238c565b8880151561227657fe5b848a03870895508880151561228757fe5b858a03880892508880151561229857fe5b8384099150888015156122a757fe5b8286099650888015156122b657fe5b8383099150888015156122c557fe5b898015156122cf57fe5b838b8015156122da57fe5b8a600209088a038a8015156122eb57fe5b888909089050808d600060038110151561230157fe5b6020020181815250508880151561231457fe5b8980151561231e57fe5b828b038908870990508880151561233157fe5b8980151561233b57fe5b8386098a0382088d600160038110151561235157fe5b6020020181815250508880151561236457fe5b8980151561236e57fe5b8b8d0984098d600260038110151561238257fe5b6020020181815250505b50505050505050505050505050565b60008060008060008060008060008060008c60026003811015156123bb57fe5b60200201519a508b60026003811015156123d157fe5b6020020151995060008b1415612457578b60006003811015156123f057fe5b60200201518d600060038110151561240457fe5b6020020181815250508b600160038110151561241c57fe5b60200201518d600160038110151561243057fe5b602002018181525050898d600260038110151561244957fe5b602002018181525050612687565b60008a141561246557612687565b7ffffffffffffffffffffffffffffffffffffffffffffffffffffffffefffffc2f98508880151561249257fe5b8b8c099750888015156124a157fe5b888d60006003811015156124b157fe5b6020020151099650888015156124c357fe5b898015156124cd57fe5b898d098d60016003811015156124df57fe5b6020020151099550888015156124f157fe5b8a8b0997508880151561250057fe5b888e600060038110151561251057fe5b60200201510994508880151561252257fe5b8980151561252c57fe5b898c098e600160038110151561253e57fe5b6020020151099350868514801561255457508584145b15612567576125628d611ebd565b612687565b8880151561257157fe5b848a03870895508880151561258257fe5b858a03880892508880151561259357fe5b8384099150888015156125a257fe5b8286099650888015156125b157fe5b8383099150888015156125c057fe5b898015156125ca57fe5b838b8015156125d557fe5b8a600209088a038a8015156125e657fe5b888909089050808d60006003811015156125fc57fe5b6020020181815250508880151561260f57fe5b8980151561261957fe5b828b038908870990508880151561262c57fe5b8980151561263657fe5b8386098a0382088d600160038110151561264c57fe5b6020020181815250508880151561265f57fe5b8980151561266957fe5b8b8d0984098d600260038110151561267d57fe5b6020020181815250505b50505050505050505050505050565b61269e6128b4565b6000806000806000806000808960026003811015156126b957fe5b6020020151975060008814156126ce57612861565b7ffffffffffffffffffffffffffffffffffffffffffffffffffffffffefffffc2f965089600060038110151561270057fe5b602002015195508680151561271157fe5b8a600160038110151561272057fe5b602002015160020994508680151561273457fe5b85860993508680151561274357fe5b86850992508680151561275257fe5b8780151561275c57fe5b87880960030991508680151561276e57fe5b8780151561277857fe5b847ffffffffffffffffffffffffffffffffffffffffffffffffffffffffefffffc2d09888015156127a557fe5b848509089050808960006003811015156127bb57fe5b602002018181525050868015156127ce57fe5b878015156127d857fe5b888015156127e257fe5b8687097f7fffffffffffffffffffffffffffffffffffffffffffffffffffffff7ffffe17098880151561281157fe5b8980151561281b57fe5b848b03870885090889600160038110151561283257fe5b6020020181815250508680151561284557fe5b88860989600260038110151561285757fe5b6020020181815250505b5050505050505050919050565b608060405190810160405280600490602082028038833980820191505090505090565b608060405190810160405280600490602082028038833980820191505090505090565b606060405190810160405280600390602082028038833980820191505090505090565b6040805190810160405280600290602082028038833980820191505090505090565b60c060405190810160405280600690602082028038833980820191505090505090565b610600604051908101604052806004905b61293561297a565b81526020019060019003908161292d5790505090565b610180604051908101604052806004905b6129646129a9565b81526020019060019003908161295c5790505090565b610180604051908101604052806004905b6129936129a9565b81526020019060019003908161298b5790505090565b6060604051908101604052806003906020820280388339808201915050905050905600a165627a7a7230582049933b33c624c3ea722922f304f5bb5eb0870f98c34e47b6d3201ba86533ea7f0029",
  "source": "pragma solidity ^0.4.24;\n\nimport \"./Numerology.sol\";\n\ncontract Verifier {\n\n  function test_proof_verification() public view returns (bool) {\n    // Verifier.deployed().then(function(inst) { return inst.test_proof_verification.estimateGas(); })\n\n    int256[4] memory k_l = [int256(-89243190524605339210527649141408088119), \n                            int256(-53877858828609620138203152946894934485),\n                            int256(-185204247857117235934281322466442848518), \n                            int256(-7585701889390054782280085152653861472)];\n\n    uint256[4] memory P_Q = [0x79be667ef9dcbbac55a06295ce870b07029bfcdb2dce28d959f2815b16f81798,\n                             0x483ada7726a3c4655da4fbfc0e1108a8fd17b448a68554199c47d08ffb10d4b8,\n                             0xc6047f9441ed7d6d3045406e95c07cd85c778e4b8cef3ca7abac09b95c709ee5,\n                             0x1ae168fea63dc339a3c58419466ceaeef7f632653266d0e1236431a950cfe52a];\n\n    uint256[4] memory wnaf;\n    uint256 max_count = 0;\n    uint256 count = 0;        \n\n    for(uint j=0; j<4; j++){\n        (wnaf[j], count) = Numerology._wnaf(k_l[j]);\n        if(count > max_count){\n          max_count = count;\n        }\n    }\n    \n    uint256[3] memory kP_lQ = Numerology._sim_mul_wnaf(wnaf, max_count, P_Q);\n\n    uint256[3] memory expected = [0x7635e27fba8e1f779dcfdde1b1eacbe0571fbe39ecf6056d29ba4bd3ef5e22f2,\n                                  0x197888e5cec769ac2f1eb65dbcbc0e49c00a8cdf01f8030d8286b68c1933fb18, \n                                  1];\n\n    return Numerology.eq_jacobian(kP_lQ, expected);\n\n  }\n\n  function test_proof_verification_hack() public view returns (bool) {\n    // Verifier.deployed().then(function(inst) { return inst.test_proof_verification_hack.estimateGas(); })\n\n    uint256[2] memory k_l = [0x1787f38d854231dfec2b27a0f621414d10bfa95970b3e576aed29e1e8287e51e,\n                             0x60d4afe7ba1967e921f22bb9fbd277f10cfe04810451d7c549ae9099c4a8b677];\n\n    uint256[4] memory P_Q = [0xa6ecb3f599964fe04c72e486a8f90172493c21f4185f1ab9a7fe05659480c548,\n                             0xdf67fd3f4255826c234a5262adc70e14a6d42f13ee55b65e885e666e1dd5d3f5,\n                             0x3f75f99c8df97f477b700407dd7a956cee2e4915f2df4fa9b11c403935c05dc5,\n                             0x497495d2e486fd4cff4929265eac91711014b9d6ad1c2220d709e20d466627fd];\n    \n    \n    uint256[6] memory expected = [0xaddcb45773b26a2f8ac2143627d54f47a12aab533dc1b41b4e791985e9eca496, // kP_x\n                                  0x72da5adb3a30a2cf147d309b0cf58c76b322c82a5edae164e13dbeed6429c41d, // kP_y\n                                  0xf07716879380e987f8b5551a1d989068d0003061088a869a33ceb9848771c6fd, // lQ_x\n                                  0x2447ed4564b75b0f9ff84013aaa37c2ab67a2c621b0edc91a06895f19a93aebb, // lQ_y\n                                  0x9ca8f6ff6a2eb6f62787f70b9f7c4939d1a3890ec87343e4f6716f9f6867eb86, // Rx\n                                  0x290c40f22995dc8b956d2c63ec060d332d082124d638ed618891171db8bc206f // Ry\n                                  ];\n\n    bool sum_is_correct = Numerology.eq_jacobian(Numerology.addJac([expected[0], expected[1], 1], [expected[2], expected[3], 1]), [expected[4], expected[5], 1]);\n    bool kP_is_correct = Numerology.ecmulVerify(P_Q[0], P_Q[1], k_l[0], expected[0], expected[1]);\n    bool lQ_is_correct = Numerology.ecmulVerify(P_Q[2], P_Q[3], k_l[1], expected[2], expected[3]);\n\n    return sum_is_correct && kP_is_correct && lQ_is_correct;\n\n  }\n\n  function test_add_eq_jac() public view returns (bool) {\n    uint256 e0 = 0xaddcb45773b26a2f8ac2143627d54f47a12aab533dc1b41b4e791985e9eca496; // kP_x\nuint256 e1 = 0x72da5adb3a30a2cf147d309b0cf58c76b322c82a5edae164e13dbeed6429c41d; // kP_y\nuint256 e2 = 0xf07716879380e987f8b5551a1d989068d0003061088a869a33ceb9848771c6fd; // lQ_x\nuint256 e3 = 0x2447ed4564b75b0f9ff84013aaa37c2ab67a2c621b0edc91a06895f19a93aebb; // lQ_y\nuint256 e4 = 0x9ca8f6ff6a2eb6f62787f70b9f7c4939d1a3890ec87343e4f6716f9f6867eb86; // Rx\nuint256 e5 = 0x290c40f22995dc8b956d2c63ec060d332d082124d638ed618891171db8bc206f; // Ry\n                                  \n//uint256[3] memory res = Numerology.add_affine_to_jac([e0, e1], [e2, e3]);\n    return Numerology.eq_affine_jacobian([e4, e5], Numerology.add_affine_to_jac([e0, e1], [e2, e3]));\n  }\n}\n\n",
  "sourcePath": "/Users/david/NuCypher/dev/numerology/contracts/verifier.sol",
  "compiler": {
    "name": "solc",
    "version": "0.4.24+commit.e67f0147.Emscripten.clang"
  },
  "schemaVersion": "2.0.1",
  "updatedAt": "2018-10-17T11:46:55.998Z"
}