{
  "contractName": "Verifier",
  "abi": [
    {
      "constant": false,
      "inputs": [],
      "name": "test_proof_verification",
      "outputs": [
        {
          "name": "",
          "type": "bool"
        }
      ],
      "payable": false,
      "stateMutability": "nonpayable",
      "type": "function"
    }
  ],
  "bytecode": "0x608060405234801561001057600080fd5b50611ed9806100206000396000f300608060405260043610610041576000357c0100000000000000000000000000000000000000000000000000000000900463ffffffff1680630c47e2dc14610046575b600080fd5b34801561005257600080fd5b5061005b610075565b604051808215151515815260200191505060405180910390f35b600061007f611d94565b610087611db7565b61008f611db7565b600080600061009c611dda565b6100a4611dda565b6080604051908101604052807fffffffffffffffffffffffffffffffffbcdc62ff01d6667a06295857cd6cbfc981526020017fffffffffffffffffffffffffffffffffd777807835a124f17f54707254d8ee2b81526020017fffffffffffffffffffffffffffffffff74aaf596278f006c7d0e7291ff9e56fa81526020017ffffffffffffffffffffffffffffffffffa4b0c0573e9acd35ff0cc4329fc9da081525097506080604051908101604052807f79be667ef9dcbbac55a06295ce870b07029bfcdb2dce28d959f2815b16f8179881526020017f483ada7726a3c4655da4fbfc0e1108a8fd17b448a68554199c47d08ffb10d4b881526020017fc6047f9441ed7d6d3045406e95c07cd85c778e4b8cef3ca7abac09b95c709ee581526020017f1ae168fea63dc339a3c58419466ceaeef7f632653266d0e1236431a950cfe52a81525096506000945060009350600092505b60048310156102515761021d888460048110151561021357fe5b60200201516103c8565b878560048110151561022b57fe5b6020020181965082815250505084841115610244578394505b82806001019350506101f9565b61025c86868961046e565b91506060604051908101604052807f7635e27fba8e1f779dcfdde1b1eacbe0571fbe39ecf6056d29ba4bd3ef5e22f281526020017f197888e5cec769ac2f1eb65dbcbc0e49c00a8cdf01f8030d8286b68c1933fb1881526020016001815250905073__Numerology____________________________63ec0a39ad83836040518363ffffffff167c01000000000000000000000000000000000000000000000000000000000281526004018083600360200280838360005b8381101561032f578082015181840152602081019050610314565b5050505090500182600360200280838360005b8381101561035d578082015181840152602081019050610342565b505050509050019250505060206040518083038186803b15801561038057600080fd5b505af4158015610394573d6000803e3d6000fd5b505050506040513d60208110156103aa57600080fd5b81019080805190602001909291905050509850505050505050505090565b600080600080600085126103dd5760016103ff565b7fffffffffffffffffffffffffffffffffffffffffffffffffffffffffffffffff5b91508482029050600092506000604051945061012c85016040525b600082111561046057600182161561044f57601082069050601060088211028183030191506008830260080383820201848601535b60018401935060028204915061041a565b508383935093505050915091565b610476611dda565b61047e611dfd565b600080600061048d848761078c565b8692505b6000831115610781578280600190039350506104ac85610fcb565b828860006004811015156104bc57fe5b6020020151019050805160001a9150600882111561051757610512858560006004811015156104e757fe5b6020020151600285600f038115156104fb57fe5b0460048110151561050857fe5b6020020151611199565b610560565b600082111561055f5761055e8585600060048110151561053357fe5b602002015160026001860381151561054757fe5b0460048110151561055457fe5b60200201516114a9565b5b5b8288600160048110151561057057fe5b6020020151019050805160001a915060088211156105cb576105c68585600160048110151561059b57fe5b6020020151600285600f038115156105af57fe5b046004811015156105bc57fe5b6020020151611199565b610614565b600082111561061357610612858560016004811015156105e757fe5b60200201516002600186038115156105fb57fe5b0460048110151561060857fe5b60200201516114a9565b5b5b8288600260048110151561062457fe5b6020020151019050805160001a9150600882111561067f5761067a8585600260048110151561064f57fe5b6020020151600285600f0381151561066357fe5b0460048110151561067057fe5b6020020151611199565b6106c8565b60008211156106c7576106c68585600260048110151561069b57fe5b60200201516002600186038115156106af57fe5b046004811015156106bc57fe5b60200201516114a9565b5b5b828860036004811015156106d857fe5b6020020151019050805160001a915060088211156107335761072e8585600360048110151561070357fe5b6020020151600285600f0381151561071757fe5b0460048110151561072457fe5b6020020151611199565b61077c565b600082111561077b5761077a8585600360048110151561074f57fe5b602002015160026001860381151561076357fe5b0460048110151561077057fe5b60200201516114a9565b5b5b610491565b505050509392505050565b600080610797611e2c565b61079f611dda565b7ffffffffffffffffffffffffffffffffffffffffffffffffffffffffefffffc2f93507f7ae96a2b657c07106e64479eac3434e99cf0497512f58995c1396c28719501ee92508560006004811015156107f457fe5b6020020151915060606040519081016040528086600060048110151561081657fe5b6020020151815260200186600160048110151561082f57fe5b60200201518152602001600181525082600060048110151561084d57fe5b602002018190525061087182600060048110151561086757fe5b60200201516117a4565b90506108908183600060048110151561088657fe5b602002015161197c565b82600160048110151561089f57fe5b60200201819052506108c4818360016004811015156108ba57fe5b602002015161197c565b8260026004811015156108d357fe5b60200201819052506108f8818360026004811015156108ee57fe5b602002015161197c565b82600360048110151561090757fe5b60200201819052506060604051908101604052808580151561092557fe5b87600060048110151561093457fe5b60200201518609815260200186600160048110151561094f57fe5b60200201518152602001600181525086600160048110151561096d57fe5b6020020151600060048110151561098057fe5b60200201819052506060604051908101604052808580151561099e57fe5b8460016004811015156109ad57fe5b602002015160006003811015156109c057fe5b6020020151860981526020018360016004811015156109db57fe5b602002015160016003811015156109ee57fe5b60200201518152602001836001600481101515610a0757fe5b60200201516002600381101515610a1a57fe5b6020020151815250866001600481101515610a3157fe5b60200201516001600481101515610a4457fe5b602002018190525060606040519081016040528085801515610a6257fe5b846002600481101515610a7157fe5b60200201516000600381101515610a8457fe5b602002015186098152602001836002600481101515610a9f57fe5b60200201516001600381101515610ab257fe5b60200201518152602001836002600481101515610acb57fe5b60200201516002600381101515610ade57fe5b6020020151815250866001600481101515610af557fe5b60200201516002600481101515610b0857fe5b602002018190525060606040519081016040528085801515610b2657fe5b846003600481101515610b3557fe5b60200201516000600381101515610b4857fe5b602002015186098152602001836003600481101515610b6357fe5b60200201516001600381101515610b7657fe5b60200201518152602001836003600481101515610b8f57fe5b60200201516002600381101515610ba257fe5b6020020151815250866001600481101515610bb957fe5b60200201516003600481101515610bcc57fe5b6020020181905250856002600481101515610be357fe5b60200201519150606060405190810160405280866002600481101515610c0557fe5b60200201518152602001866003600481101515610c1e57fe5b602002015181526020016001815250826000600481101515610c3c57fe5b6020020181905250610c60826000600481101515610c5657fe5b60200201516117a4565b9050610c7f81836000600481101515610c7557fe5b602002015161197c565b826001600481101515610c8e57fe5b6020020181905250610cb381836001600481101515610ca957fe5b602002015161197c565b826002600481101515610cc257fe5b6020020181905250610ce781836002600481101515610cdd57fe5b602002015161197c565b826003600481101515610cf657fe5b602002018190525060606040519081016040528085801515610d1457fe5b876002600481101515610d2357fe5b602002015186098152602001866003600481101515610d3e57fe5b602002015181526020016001815250866003600481101515610d5c57fe5b60200201516000600481101515610d6f57fe5b602002018190525060606040519081016040528085801515610d8d57fe5b846001600481101515610d9c57fe5b60200201516000600381101515610daf57fe5b602002015186098152602001836001600481101515610dca57fe5b60200201516001600381101515610ddd57fe5b60200201518152602001836001600481101515610df657fe5b60200201516002600381101515610e0957fe5b6020020151815250866003600481101515610e2057fe5b60200201516001600481101515610e3357fe5b602002018190525060606040519081016040528085801515610e5157fe5b846002600481101515610e6057fe5b60200201516000600381101515610e7357fe5b602002015186098152602001836002600481101515610e8e57fe5b60200201516001600381101515610ea157fe5b60200201518152602001836002600481101515610eba57fe5b60200201516002600381101515610ecd57fe5b6020020151815250866003600481101515610ee457fe5b60200201516002600481101515610ef757fe5b602002018190525060606040519081016040528085801515610f1557fe5b846003600481101515610f2457fe5b60200201516000600381101515610f3757fe5b602002015186098152602001836003600481101515610f5257fe5b60200201516001600381101515610f6557fe5b60200201518152602001836003600481101515610f7e57fe5b60200201516002600381101515610f9157fe5b6020020151815250866003600481101515610fa857fe5b60200201516003600481101515610fbb57fe5b6020020181905250505050505050565b600080600080600080600080886002600381101515610fe657fe5b602002015197506000881415610ffb5761118e565b7ffffffffffffffffffffffffffffffffffffffffffffffffffffffffefffffc2f965088600060038110151561102d57fe5b602002015195508680151561103e57fe5b89600160038110151561104d57fe5b602002015160020994508680151561106157fe5b85860993508680151561107057fe5b86850992508680151561107f57fe5b8780151561108957fe5b87880960030991508680151561109b57fe5b878015156110a557fe5b847ffffffffffffffffffffffffffffffffffffffffffffffffffffffffefffffc2d09888015156110d257fe5b848509089050808960006003811015156110e857fe5b602002018181525050868015156110fb57fe5b8780151561110557fe5b8880151561110f57fe5b8687097f7fffffffffffffffffffffffffffffffffffffffffffffffffffffff7ffffe17098880151561113e57fe5b8980151561114857fe5b848b03870885090889600160038110151561115f57fe5b6020020181815250508680151561117257fe5b88860989600260038110151561118457fe5b6020020181815250505b505050505050505050565b60008060008060008060008060008060008c60026003811015156111b957fe5b60200201519a508b60026003811015156111cf57fe5b602002015199507ffffffffffffffffffffffffffffffffffffffffffffffffffffffffefffffc2f985060008b141561127a578b600060038110151561121157fe5b60200201518d600060038110151561122557fe5b6020020181815250508b600160038110151561123d57fe5b602002015189038d600160038110151561125357fe5b602002018181525050898d600260038110151561126c57fe5b60200201818152505061149a565b60008a14156112885761149a565b8880151561129257fe5b8b8c099750888015156112a157fe5b888d60006003811015156112b157fe5b6020020151099650888015156112c357fe5b898015156112cd57fe5b898d098d60016003811015156112df57fe5b60200201518b03099550888015156112f357fe5b8a8b0997508880151561130257fe5b888e600060038110151561131257fe5b60200201510994508880151561132457fe5b8980151561132e57fe5b898c098e600160038110151561134057fe5b6020020151099350868514801561135657508584145b1561137a5760008d600260038110151561136c57fe5b60200201818152505061149a565b8880151561138457fe5b848a03870895508880151561139557fe5b858a0388089250888015156113a657fe5b8384099150888015156113b557fe5b8286099650888015156113c457fe5b8383099150888015156113d357fe5b898015156113dd57fe5b838b8015156113e857fe5b8a600209088a038a8015156113f957fe5b888909089050808d600060038110151561140f57fe5b6020020181815250508880151561142257fe5b8980151561142c57fe5b828b038908870990508880151561143f57fe5b8980151561144957fe5b8386098a0382088d600160038110151561145f57fe5b6020020181815250508880151561147257fe5b8980151561147c57fe5b8b8d0984098d600260038110151561149057fe5b6020020181815250505b50505050505050505050505050565b60008060008060008060008060008060008c60026003811015156114c957fe5b60200201519a508b60026003811015156114df57fe5b6020020151995060008b1415611565578b60006003811015156114fe57fe5b60200201518d600060038110151561151257fe5b6020020181815250508b600160038110151561152a57fe5b60200201518d600160038110151561153e57fe5b602002018181525050898d600260038110151561155757fe5b602002018181525050611795565b60008a141561157357611795565b7ffffffffffffffffffffffffffffffffffffffffffffffffffffffffefffffc2f9850888015156115a057fe5b8b8c099750888015156115af57fe5b888d60006003811015156115bf57fe5b6020020151099650888015156115d157fe5b898015156115db57fe5b898d098d60016003811015156115ed57fe5b6020020151099550888015156115ff57fe5b8a8b0997508880151561160e57fe5b888e600060038110151561161e57fe5b60200201510994508880151561163057fe5b8980151561163a57fe5b898c098e600160038110151561164c57fe5b6020020151099350868514801561166257508584145b15611675576116708d610fcb565b611795565b8880151561167f57fe5b848a03870895508880151561169057fe5b858a0388089250888015156116a157fe5b8384099150888015156116b057fe5b8286099650888015156116bf57fe5b8383099150888015156116ce57fe5b898015156116d857fe5b838b8015156116e357fe5b8a600209088a038a8015156116f457fe5b888909089050808d600060038110151561170a57fe5b6020020181815250508880151561171d57fe5b8980151561172757fe5b828b038908870990508880151561173a57fe5b8980151561174457fe5b8386098a0382088d600160038110151561175a57fe5b6020020181815250508880151561176d57fe5b8980151561177757fe5b8b8d0984098d600260038110151561178b57fe5b6020020181815250505b50505050505050505050505050565b6117ac611dda565b6000806000806000806000808960026003811015156117c757fe5b6020020151975060008814156117dc5761196f565b7ffffffffffffffffffffffffffffffffffffffffffffffffffffffffefffffc2f965089600060038110151561180e57fe5b602002015195508680151561181f57fe5b8a600160038110151561182e57fe5b602002015160020994508680151561184257fe5b85860993508680151561185157fe5b86850992508680151561186057fe5b8780151561186a57fe5b87880960030991508680151561187c57fe5b8780151561188657fe5b847ffffffffffffffffffffffffffffffffffffffffffffffffffffffffefffffc2d09888015156118b357fe5b848509089050808960006003811015156118c957fe5b602002018181525050868015156118dc57fe5b878015156118e657fe5b888015156118f057fe5b8687097f7fffffffffffffffffffffffffffffffffffffffffffffffffffffff7ffffe17098880151561191f57fe5b8980151561192957fe5b848b03870885090889600160038110151561194057fe5b6020020181815250508680151561195357fe5b88860989600260038110151561196557fe5b6020020181815250505b5050505050505050919050565b611984611dda565b600080600080600080600080611998611dda565b6000808d60026003811015156119aa57fe5b602002015114156119bd578b9a50611d84565b60008c60026003811015156119ce57fe5b602002015114156119e1578c9a50611d84565b7ffffffffffffffffffffffffffffffffffffffffffffffffffffffffefffffc2f995089801515611a0e57fe5b8d6002600381101515611a1d57fe5b60200201518e6002600381101515611a3157fe5b602002015109985089801515611a4357fe5b8c6002600381101515611a5257fe5b60200201518d6002600381101515611a6657fe5b602002015109975089801515611a7857fe5b888e6000600381101515611a8857fe5b602002015109965089801515611a9a57fe5b8a801515611aa457fe5b898e6002600381101515611ab457fe5b6020020151098e6001600381101515611ac957fe5b602002015109955089801515611adb57fe5b898d6000600381101515611aeb57fe5b602002015109945089801515611afd57fe5b8a801515611b0757fe5b8a8f6002600381101515611b1757fe5b6020020151098d6001600381101515611b2c57fe5b60200201510993508487148015611b4257508386145b15611b5757611b508d6117a4565b9a50611d84565b89801515611b6157fe5b868b038508925089801515611b7257fe5b878b038608826000600381101515611b8657fe5b60200201818152505089801515611b9957fe5b826000600381101515611ba857fe5b6020020151836000600381101515611bbc57fe5b602002015109826001600381101515611bd157fe5b60200201818152505089801515611be457fe5b826000600381101515611bf357fe5b6020020151836001600381101515611c0757fe5b602002015109826002600381101515611c1c57fe5b60200201818152505089801515611c2f57fe5b826001600381101515611c3e57fe5b60200201518809905089801515611c5157fe5b8a801515611c5b57fe5b836002600381101515611c6a57fe5b60200201518c801515611c7957fe5b84600209088b038b801515611c8a57fe5b858609088b6000600381101515611c9d57fe5b60200201818152505089801515611cb057fe5b8a801515611cba57fe5b836002600381101515611cc957fe5b602002015188098b038b801515611cdc57fe5b8c801515611ce657fe5b8e6000600381101515611cf557fe5b60200201518e0385088609088b6001600381101515611d1057fe5b60200201818152505089801515611d2357fe5b8a801515611d2d57fe5b8d6002600381101515611d3c57fe5b60200201518f6002600381101515611d5057fe5b602002015109836000600381101515611d6557fe5b6020020151098b6002600381101515611d7a57fe5b6020020181815250505b5050505050505050505092915050565b608060405190810160405280600490602082028038833980820191505090505090565b608060405190810160405280600490602082028038833980820191505090505090565b606060405190810160405280600390602082028038833980820191505090505090565b610600604051908101604052806004905b611e16611e5b565b815260200190600190039081611e0e5790505090565b610180604051908101604052806004905b611e45611e8a565b815260200190600190039081611e3d5790505090565b610180604051908101604052806004905b611e74611e8a565b815260200190600190039081611e6c5790505090565b6060604051908101604052806003906020820280388339808201915050905050905600a165627a7a723058200439cc46fe281002d2a90fc4172d87f5bb6e31d0bde068c5a3c2bee8294090480029",
  "source": "pragma solidity ^0.4.24;\n\nimport \"./Numerology.sol\";\n\ncontract Verifier {\n\n  function test_proof_verification() public returns (bool) {\n    // Verifier.deployed().then(function(inst) { return inst.test_proof_verification.estimateGas(); })\n\n    int256[4] memory k_l = [int256(-89243190524605339210527649141408088119), \n                            int256(-53877858828609620138203152946894934485),\n                            int256(-185204247857117235934281322466442848518), \n                            int256(-7585701889390054782280085152653861472)];\n\n    uint256[4] memory P_Q = [0x79be667ef9dcbbac55a06295ce870b07029bfcdb2dce28d959f2815b16f81798,\n                             0x483ada7726a3c4655da4fbfc0e1108a8fd17b448a68554199c47d08ffb10d4b8,\n                             0xc6047f9441ed7d6d3045406e95c07cd85c778e4b8cef3ca7abac09b95c709ee5,\n                             0x1ae168fea63dc339a3c58419466ceaeef7f632653266d0e1236431a950cfe52a];\n\n    uint256[4] memory wnaf;\n    uint256 max_count = 0;\n    uint256 count = 0;        \n\n    for(uint j=0; j<4; j++){\n        (wnaf[j], count) = Numerology._wnaf(k_l[j]);\n        if(count > max_count){\n          max_count = count;\n        }\n    }\n    \n    uint256[3] memory kP_lQ = Numerology._sim_mul_wnaf(wnaf, max_count, P_Q);\n\n    uint256[3] memory expected = [0x7635e27fba8e1f779dcfdde1b1eacbe0571fbe39ecf6056d29ba4bd3ef5e22f2,\n                                  0x197888e5cec769ac2f1eb65dbcbc0e49c00a8cdf01f8030d8286b68c1933fb18, \n                                  1];\n\n    return Numerology.eq_jacobian(kP_lQ, expected);\n\n  }\n\n}\n\n",
  "sourcePath": "/Users/david/NuCypher/dev/numerology/contracts/verifier.sol",
  "compiler": {
    "name": "solc",
    "version": "0.4.24+commit.e67f0147.Emscripten.clang"
  },
  "schemaVersion": "2.0.1",
  "updatedAt": "2018-09-10T18:08:55.307Z"
}