{
  "contractName": "Verifier",
  "abi": [
    {
      "constant": false,
      "inputs": [],
      "name": "test_proof_verification",
      "outputs": [
        {
          "name": "",
          "type": "bool"
        }
      ],
      "payable": false,
      "stateMutability": "nonpayable",
      "type": "function"
    }
  ],
  "bytecode": "0x608060405234801561001057600080fd5b50611bd5806100206000396000f300608060405260043610610041576000357c0100000000000000000000000000000000000000000000000000000000900463ffffffff1680630c47e2dc14610046575b600080fd5b34801561005257600080fd5b5061005b610075565b604051808215151515815260200191505060405180910390f35b600061007f611a90565b610087611ab3565b61008f611ab3565b600080600061009c611ad6565b6100a4611ad6565b6080604051908101604052807fffffffffffffffffffffffffffffffffbcdc62ff01d6667a06295857cd6cbfc981526020017fffffffffffffffffffffffffffffffffd777807835a124f17f54707254d8ee2b81526020017fffffffffffffffffffffffffffffffff74aaf596278f006c7d0e7291ff9e56fa81526020017ffffffffffffffffffffffffffffffffffa4b0c0573e9acd35ff0cc4329fc9da081525097506080604051908101604052807f79be667ef9dcbbac55a06295ce870b07029bfcdb2dce28d959f2815b16f8179881526020017f483ada7726a3c4655da4fbfc0e1108a8fd17b448a68554199c47d08ffb10d4b881526020017fc6047f9441ed7d6d3045406e95c07cd85c778e4b8cef3ca7abac09b95c709ee581526020017f1ae168fea63dc339a3c58419466ceaeef7f632653266d0e1236431a950cfe52a81525096506000945060009350600092505b60048310156102515761021d888460048110151561021357fe5b60200201516103e2565b878560048110151561022b57fe5b6020020181965082815250505084841115610244578394505b82806001019350506101f9565b61025c868689610488565b9150610269868689610488565b9150610276868689610488565b91506060604051908101604052807f7635e27fba8e1f779dcfdde1b1eacbe0571fbe39ecf6056d29ba4bd3ef5e22f281526020017f197888e5cec769ac2f1eb65dbcbc0e49c00a8cdf01f8030d8286b68c1933fb1881526020016001815250905073__Numerology____________________________63ec0a39ad83836040518363ffffffff167c01000000000000000000000000000000000000000000000000000000000281526004018083600360200280838360005b8381101561034957808201518184015260208101905061032e565b5050505090500182600360200280838360005b8381101561037757808201518184015260208101905061035c565b505050509050019250505060206040518083038186803b15801561039a57600080fd5b505af41580156103ae573d6000803e3d6000fd5b505050506040513d60208110156103c457600080fd5b81019080805190602001909291905050509850505050505050505090565b600080600080600085126103f7576001610419565b7fffffffffffffffffffffffffffffffffffffffffffffffffffffffffffffffff5b91508482029050600092506000604051945061012c85016040525b600082111561047a57600182161561046957601082069050601060088211028183030191506008830260080383820201848601535b600184019350600282049150610434565b508383935093505050915091565b610490611ad6565b610498611af9565b60008060006104a784876107a6565b8692505b600083111561079b578280600190039350506104c685610cc7565b828860006004811015156104d657fe5b6020020151019050805160001a915060088211156105315761052c8585600060048110151561050157fe5b6020020151600285600f0381151561051557fe5b0460048110151561052257fe5b6020020151610e95565b61057a565b6000821115610579576105788585600060048110151561054d57fe5b602002015160026001860381151561056157fe5b0460048110151561056e57fe5b60200201516111a5565b5b5b8288600160048110151561058a57fe5b6020020151019050805160001a915060088211156105e5576105e0858560016004811015156105b557fe5b6020020151600285600f038115156105c957fe5b046004811015156105d657fe5b6020020151610e95565b61062e565b600082111561062d5761062c8585600160048110151561060157fe5b602002015160026001860381151561061557fe5b0460048110151561062257fe5b60200201516111a5565b5b5b8288600260048110151561063e57fe5b6020020151019050805160001a91506008821115610699576106948585600260048110151561066957fe5b6020020151600285600f0381151561067d57fe5b0460048110151561068a57fe5b6020020151610e95565b6106e2565b60008211156106e1576106e0858560026004811015156106b557fe5b60200201516002600186038115156106c957fe5b046004811015156106d657fe5b60200201516111a5565b5b5b828860036004811015156106f257fe5b6020020151019050805160001a9150600882111561074d576107488585600360048110151561071d57fe5b6020020151600285600f0381151561073157fe5b0460048110151561073e57fe5b6020020151610e95565b610796565b6000821115610795576107948585600360048110151561076957fe5b602002015160026001860381151561077d57fe5b0460048110151561078a57fe5b60200201516111a5565b5b5b6104ab565b505050509392505050565b6000806107b1611b28565b6107b9611ad6565b7ffffffffffffffffffffffffffffffffffffffffffffffffffffffffefffffc2f93507f7ae96a2b657c07106e64479eac3434e99cf0497512f58995c1396c28719501ee925085600060048110151561080e57fe5b6020020151915060606040519081016040528086600060048110151561083057fe5b6020020151815260200186600160048110151561084957fe5b60200201518152602001600181525082600060048110151561086757fe5b602002018190525061088b82600060048110151561088157fe5b60200201516114a0565b90506108aa818360006004811015156108a057fe5b6020020151611678565b8260016004811015156108b957fe5b60200201819052506108de818360016004811015156108d457fe5b6020020151611678565b8260026004811015156108ed57fe5b60200201819052506109128183600260048110151561090857fe5b6020020151611678565b82600360048110151561092157fe5b602002018190525085600160048110151561093857fe5b602002015191506060604051908101604052808580151561095557fe5b87600060048110151561096457fe5b60200201518609815260200186600160048110151561097f57fe5b60200201518152602001600181525082600060048110151561099d57fe5b60200201819052506109c18260006004811015156109b757fe5b60200201516114a0565b90506109e0818360006004811015156109d657fe5b6020020151611678565b8260016004811015156109ef57fe5b6020020181905250610a1481836001600481101515610a0a57fe5b6020020151611678565b826002600481101515610a2357fe5b6020020181905250610a4881836002600481101515610a3e57fe5b6020020151611678565b826003600481101515610a5757fe5b6020020181905250856002600481101515610a6e57fe5b60200201519150606060405190810160405280866002600481101515610a9057fe5b60200201518152602001866003600481101515610aa957fe5b602002015181526020016001815250826000600481101515610ac757fe5b6020020181905250610aeb826000600481101515610ae157fe5b60200201516114a0565b9050610b0a81836000600481101515610b0057fe5b6020020151611678565b826001600481101515610b1957fe5b6020020181905250610b3e81836001600481101515610b3457fe5b6020020151611678565b826002600481101515610b4d57fe5b6020020181905250610b7281836002600481101515610b6857fe5b6020020151611678565b826003600481101515610b8157fe5b6020020181905250856003600481101515610b9857fe5b6020020151915060606040519081016040528085801515610bb557fe5b876002600481101515610bc457fe5b602002015186098152602001866003600481101515610bdf57fe5b602002015181526020016001815250826000600481101515610bfd57fe5b6020020181905250610c21826000600481101515610c1757fe5b60200201516114a0565b9050610c4081836000600481101515610c3657fe5b6020020151611678565b826001600481101515610c4f57fe5b6020020181905250610c7481836001600481101515610c6a57fe5b6020020151611678565b826002600481101515610c8357fe5b6020020181905250610ca881836002600481101515610c9e57fe5b6020020151611678565b826003600481101515610cb757fe5b6020020181905250505050505050565b600080600080600080600080886002600381101515610ce257fe5b602002015197506000881415610cf757610e8a565b7ffffffffffffffffffffffffffffffffffffffffffffffffffffffffefffffc2f9650886000600381101515610d2957fe5b6020020151955086801515610d3a57fe5b896001600381101515610d4957fe5b6020020151600209945086801515610d5d57fe5b858609935086801515610d6c57fe5b868509925086801515610d7b57fe5b87801515610d8557fe5b878809600309915086801515610d9757fe5b87801515610da157fe5b847ffffffffffffffffffffffffffffffffffffffffffffffffffffffffefffffc2d0988801515610dce57fe5b84850908905080896000600381101515610de457fe5b60200201818152505086801515610df757fe5b87801515610e0157fe5b88801515610e0b57fe5b8687097f7fffffffffffffffffffffffffffffffffffffffffffffffffffffff7ffffe170988801515610e3a57fe5b89801515610e4457fe5b848b038708850908896001600381101515610e5b57fe5b60200201818152505086801515610e6e57fe5b888609896002600381101515610e8057fe5b6020020181815250505b505050505050505050565b60008060008060008060008060008060008c6002600381101515610eb557fe5b60200201519a508b6002600381101515610ecb57fe5b602002015199507ffffffffffffffffffffffffffffffffffffffffffffffffffffffffefffffc2f985060008b1415610f76578b6000600381101515610f0d57fe5b60200201518d6000600381101515610f2157fe5b6020020181815250508b6001600381101515610f3957fe5b602002015189038d6001600381101515610f4f57fe5b602002018181525050898d6002600381101515610f6857fe5b602002018181525050611196565b60008a1415610f8457611196565b88801515610f8e57fe5b8b8c09975088801515610f9d57fe5b888d6000600381101515610fad57fe5b602002015109965088801515610fbf57fe5b89801515610fc957fe5b898d098d6001600381101515610fdb57fe5b60200201518b0309955088801515610fef57fe5b8a8b09975088801515610ffe57fe5b888e600060038110151561100e57fe5b60200201510994508880151561102057fe5b8980151561102a57fe5b898c098e600160038110151561103c57fe5b6020020151099350868514801561105257508584145b156110765760008d600260038110151561106857fe5b602002018181525050611196565b8880151561108057fe5b848a03870895508880151561109157fe5b858a0388089250888015156110a257fe5b8384099150888015156110b157fe5b8286099650888015156110c057fe5b8383099150888015156110cf57fe5b898015156110d957fe5b838b8015156110e457fe5b8a600209088a038a8015156110f557fe5b888909089050808d600060038110151561110b57fe5b6020020181815250508880151561111e57fe5b8980151561112857fe5b828b038908870990508880151561113b57fe5b8980151561114557fe5b8386098a0382088d600160038110151561115b57fe5b6020020181815250508880151561116e57fe5b8980151561117857fe5b8b8d0984098d600260038110151561118c57fe5b6020020181815250505b50505050505050505050505050565b60008060008060008060008060008060008c60026003811015156111c557fe5b60200201519a508b60026003811015156111db57fe5b6020020151995060008b1415611261578b60006003811015156111fa57fe5b60200201518d600060038110151561120e57fe5b6020020181815250508b600160038110151561122657fe5b60200201518d600160038110151561123a57fe5b602002018181525050898d600260038110151561125357fe5b602002018181525050611491565b60008a141561126f57611491565b7ffffffffffffffffffffffffffffffffffffffffffffffffffffffffefffffc2f98508880151561129c57fe5b8b8c099750888015156112ab57fe5b888d60006003811015156112bb57fe5b6020020151099650888015156112cd57fe5b898015156112d757fe5b898d098d60016003811015156112e957fe5b6020020151099550888015156112fb57fe5b8a8b0997508880151561130a57fe5b888e600060038110151561131a57fe5b60200201510994508880151561132c57fe5b8980151561133657fe5b898c098e600160038110151561134857fe5b6020020151099350868514801561135e57508584145b156113715761136c8d610cc7565b611491565b8880151561137b57fe5b848a03870895508880151561138c57fe5b858a03880892508880151561139d57fe5b8384099150888015156113ac57fe5b8286099650888015156113bb57fe5b8383099150888015156113ca57fe5b898015156113d457fe5b838b8015156113df57fe5b8a600209088a038a8015156113f057fe5b888909089050808d600060038110151561140657fe5b6020020181815250508880151561141957fe5b8980151561142357fe5b828b038908870990508880151561143657fe5b8980151561144057fe5b8386098a0382088d600160038110151561145657fe5b6020020181815250508880151561146957fe5b8980151561147357fe5b8b8d0984098d600260038110151561148757fe5b6020020181815250505b50505050505050505050505050565b6114a8611ad6565b6000806000806000806000808960026003811015156114c357fe5b6020020151975060008814156114d85761166b565b7ffffffffffffffffffffffffffffffffffffffffffffffffffffffffefffffc2f965089600060038110151561150a57fe5b602002015195508680151561151b57fe5b8a600160038110151561152a57fe5b602002015160020994508680151561153e57fe5b85860993508680151561154d57fe5b86850992508680151561155c57fe5b8780151561156657fe5b87880960030991508680151561157857fe5b8780151561158257fe5b847ffffffffffffffffffffffffffffffffffffffffffffffffffffffffefffffc2d09888015156115af57fe5b848509089050808960006003811015156115c557fe5b602002018181525050868015156115d857fe5b878015156115e257fe5b888015156115ec57fe5b8687097f7fffffffffffffffffffffffffffffffffffffffffffffffffffffff7ffffe17098880151561161b57fe5b8980151561162557fe5b848b03870885090889600160038110151561163c57fe5b6020020181815250508680151561164f57fe5b88860989600260038110151561166157fe5b6020020181815250505b5050505050505050919050565b611680611ad6565b600080600080600080600080611694611ad6565b6000808d60026003811015156116a657fe5b602002015114156116b9578b9a50611a80565b60008c60026003811015156116ca57fe5b602002015114156116dd578c9a50611a80565b7ffffffffffffffffffffffffffffffffffffffffffffffffffffffffefffffc2f99508980151561170a57fe5b8d600260038110151561171957fe5b60200201518e600260038110151561172d57fe5b60200201510998508980151561173f57fe5b8c600260038110151561174e57fe5b60200201518d600260038110151561176257fe5b60200201510997508980151561177457fe5b888e600060038110151561178457fe5b60200201510996508980151561179657fe5b8a8015156117a057fe5b898e60026003811015156117b057fe5b6020020151098e60016003811015156117c557fe5b6020020151099550898015156117d757fe5b898d60006003811015156117e757fe5b6020020151099450898015156117f957fe5b8a80151561180357fe5b8a8f600260038110151561181357fe5b6020020151098d600160038110151561182857fe5b6020020151099350848714801561183e57508386145b156118535761184c8d6114a0565b9a50611a80565b8980151561185d57fe5b868b03850892508980151561186e57fe5b878b03860882600060038110151561188257fe5b6020020181815250508980151561189557fe5b8260006003811015156118a457fe5b60200201518360006003811015156118b857fe5b6020020151098260016003811015156118cd57fe5b602002018181525050898015156118e057fe5b8260006003811015156118ef57fe5b602002015183600160038110151561190357fe5b60200201510982600260038110151561191857fe5b6020020181815250508980151561192b57fe5b82600160038110151561193a57fe5b6020020151880990508980151561194d57fe5b8a80151561195757fe5b83600260038110151561196657fe5b60200201518c80151561197557fe5b84600209088b038b80151561198657fe5b858609088b600060038110151561199957fe5b602002018181525050898015156119ac57fe5b8a8015156119b657fe5b8360026003811015156119c557fe5b602002015188098b038b8015156119d857fe5b8c8015156119e257fe5b8e60006003811015156119f157fe5b60200201518e0385088609088b6001600381101515611a0c57fe5b60200201818152505089801515611a1f57fe5b8a801515611a2957fe5b8d6002600381101515611a3857fe5b60200201518f6002600381101515611a4c57fe5b602002015109836000600381101515611a6157fe5b6020020151098b6002600381101515611a7657fe5b6020020181815250505b5050505050505050505092915050565b608060405190810160405280600490602082028038833980820191505090505090565b608060405190810160405280600490602082028038833980820191505090505090565b606060405190810160405280600390602082028038833980820191505090505090565b610600604051908101604052806004905b611b12611b57565b815260200190600190039081611b0a5790505090565b610180604051908101604052806004905b611b41611b86565b815260200190600190039081611b395790505090565b610180604051908101604052806004905b611b70611b86565b815260200190600190039081611b685790505090565b6060604051908101604052806003906020820280388339808201915050905050905600a165627a7a72305820c3d058cc55d88aa199d643cc044f85f173b844f4242a2ab53661befca6f1a72c0029",
  "source": "pragma solidity ^0.4.24;\n\nimport \"./Numerology.sol\";\n\ncontract Verifier {\n\n  function test_proof_verification() public returns (bool) {\n    // Verifier.deployed().then(function(inst) { return inst.test_proof_verification.estimateGas(); })\n\n    int256[4] memory k_l = [int256(-89243190524605339210527649141408088119), int256(-53877858828609620138203152946894934485), int256(-185204247857117235934281322466442848518), int256(-7585701889390054782280085152653861472)];\n\n    uint256[4] memory P_Q = [0x79be667ef9dcbbac55a06295ce870b07029bfcdb2dce28d959f2815b16f81798, 0x483ada7726a3c4655da4fbfc0e1108a8fd17b448a68554199c47d08ffb10d4b8, 0xc6047f9441ed7d6d3045406e95c07cd85c778e4b8cef3ca7abac09b95c709ee5, 0x1ae168fea63dc339a3c58419466ceaeef7f632653266d0e1236431a950cfe52a];\n\n    uint256[4] memory wnaf;\n    uint256 max_count = 0;\n    uint256 count = 0;        \n\n    for(uint j=0; j<4; j++){\n        (wnaf[j], count) = Numerology._wnaf(k_l[j]);\n        if(count > max_count){\n          max_count = count;\n        }\n    }\n    \n    uint256[3] memory kP_lQ = Numerology._sim_mul_wnaf(wnaf, max_count, P_Q);\n\n    kP_lQ = Numerology._sim_mul_wnaf(wnaf, max_count, P_Q);\n\n    kP_lQ = Numerology._sim_mul_wnaf(wnaf, max_count, P_Q);\n\n    uint256[3] memory expected = [0x7635e27fba8e1f779dcfdde1b1eacbe0571fbe39ecf6056d29ba4bd3ef5e22f2, 0x197888e5cec769ac2f1eb65dbcbc0e49c00a8cdf01f8030d8286b68c1933fb18, 1];\n\n    return Numerology.eq_jacobian(kP_lQ, expected);\n\n  }\n\n}\n\n",
  "sourcePath": "/Users/david/NuCypher/dev/numerology/contracts/verifier.sol",
  "compiler": {
    "name": "solc",
    "version": "0.4.24+commit.e67f0147.Emscripten.clang"
  },
  "schemaVersion": "2.0.1",
  "updatedAt": "2018-08-29T12:19:08.662Z"
}